{
  "_format": "hh-sol-artifact-1",
  "contractName": "Certifications",
  "sourceName": "contracts/Certifications.sol",
  "abi": [
    {
      "inputs": [],
      "stateMutability": "nonpayable",
      "type": "constructor"
    },
    {
      "inputs": [
        {
          "internalType": "address",
          "name": "owner",
          "type": "address"
        }
      ],
      "name": "OwnableInvalidOwner",
      "type": "error"
    },
    {
      "inputs": [
        {
          "internalType": "address",
          "name": "account",
          "type": "address"
        }
      ],
      "name": "OwnableUnauthorizedAccount",
      "type": "error"
    },
    {
      "anonymous": false,
      "inputs": [
        {
          "indexed": false,
          "internalType": "string",
          "name": "identityDocument",
          "type": "string"
        },
        {
          "indexed": false,
          "internalType": "string",
          "name": "name",
          "type": "string"
        },
        {
          "indexed": false,
          "internalType": "string",
          "name": "institution",
          "type": "string"
        },
        {
          "indexed": false,
          "internalType": "string",
          "name": "role",
          "type": "string"
        },
        {
          "indexed": false,
          "internalType": "string",
          "name": "date",
          "type": "string"
        },
        {
          "indexed": false,
          "internalType": "uint256",
          "name": "completedHours",
          "type": "uint256"
        },
        {
          "indexed": false,
          "internalType": "string",
          "name": "email",
          "type": "string"
        }
      ],
      "name": "CertificateCreated",
      "type": "event"
    },
    {
      "anonymous": false,
      "inputs": [
        {
          "indexed": true,
          "internalType": "address",
          "name": "previousOwner",
          "type": "address"
        },
        {
          "indexed": true,
          "internalType": "address",
          "name": "newOwner",
          "type": "address"
        }
      ],
      "name": "OwnershipTransferred",
      "type": "event"
    },
    {
      "inputs": [
        {
          "internalType": "string",
          "name": "_identityDocument",
          "type": "string"
        },
        {
          "internalType": "string",
          "name": "_name",
          "type": "string"
        },
        {
          "internalType": "string",
          "name": "_institution",
          "type": "string"
        },
        {
          "internalType": "string",
          "name": "_role",
          "type": "string"
        },
        {
          "internalType": "string",
          "name": "_date",
          "type": "string"
        },
        {
          "internalType": "uint256",
          "name": "_completedHours",
          "type": "uint256"
        },
        {
          "internalType": "string",
          "name": "_email",
          "type": "string"
        }
      ],
      "name": "createCertificate",
      "outputs": [],
      "stateMutability": "nonpayable",
      "type": "function"
    },
    {
      "inputs": [
        {
          "internalType": "string",
          "name": "identityDocument",
          "type": "string"
        }
      ],
      "name": "getCertificate",
      "outputs": [
        {
          "internalType": "string",
          "name": "",
          "type": "string"
        },
        {
          "internalType": "string",
          "name": "",
          "type": "string"
        },
        {
          "internalType": "string",
          "name": "",
          "type": "string"
        },
        {
          "internalType": "string",
          "name": "",
          "type": "string"
        },
        {
          "internalType": "uint256",
          "name": "",
          "type": "uint256"
        },
        {
          "internalType": "string",
          "name": "",
          "type": "string"
        }
      ],
      "stateMutability": "view",
      "type": "function"
    },
    {
      "inputs": [],
      "name": "owner",
      "outputs": [
        {
          "internalType": "address",
          "name": "",
          "type": "address"
        }
      ],
      "stateMutability": "view",
      "type": "function"
    },
    {
      "inputs": [],
      "name": "renounceOwnership",
      "outputs": [],
      "stateMutability": "nonpayable",
      "type": "function"
    },
    {
      "inputs": [
        {
          "internalType": "address",
          "name": "newOwner",
          "type": "address"
        }
      ],
      "name": "transferOwnership",
      "outputs": [],
      "stateMutability": "nonpayable",
      "type": "function"
    }
  ],
  "bytecode": "0x60806040523480156200001157600080fd5b5033600073ffffffffffffffffffffffffffffffffffffffff168173ffffffffffffffffffffffffffffffffffffffff1603620000885760006040517f1e4fbdf70000000000000000000000000000000000000000000000000000000081526004016200007f9190620001a9565b60405180910390fd5b6200009981620000a060201b60201c565b50620001c6565b60008060009054906101000a900473ffffffffffffffffffffffffffffffffffffffff169050816000806101000a81548173ffffffffffffffffffffffffffffffffffffffff021916908373ffffffffffffffffffffffffffffffffffffffff1602179055508173ffffffffffffffffffffffffffffffffffffffff168173ffffffffffffffffffffffffffffffffffffffff167f8be0079c531659141344cd1fd0a4f28419497f9722a3daafe3b4186f6b6457e060405160405180910390a35050565b600073ffffffffffffffffffffffffffffffffffffffff82169050919050565b6000620001918262000164565b9050919050565b620001a38162000184565b82525050565b6000602082019050620001c0600083018462000198565b92915050565b6112c080620001d66000396000f3fe608060405234801561001057600080fd5b50600436106100575760003560e01c8063715018a61461005c5780638da5cb5b14610066578063ec7d8dce14610084578063ed0f2e75146100a0578063f2fde38b146100d5575b600080fd5b6100646100f1565b005b61006e610105565b60405161007b919061093f565b60405180910390f35b61009e60048036038101906100999190610aea565b61012e565b005b6100ba60048036038101906100b59190610c34565b6102d4565b6040516100cc96959493929190610d0b565b60405180910390f35b6100ef60048036038101906100ea9190610dbb565b610725565b005b6100f96107ab565b6101036000610832565b565b60008060009054906101000a900473ffffffffffffffffffffffffffffffffffffffff16905090565b6101366107ab565b60006001886040516101489190610e24565b9081526020016040518091039020600501805461016490610e6a565b9050146101a6576040517f08c379a000000000000000000000000000000000000000000000000000000000815260040161019d90610ee7565b60405180910390fd5b6040518060e00160405280878152602001868152602001858152602001848152602001838152602001888152602001828152506001886040516101e99190610e24565b9081526020016040518091039020600082015181600001908161020c91906110b3565b50602082015181600101908161022291906110b3565b50604082015181600201908161023891906110b3565b50606082015181600301908161024e91906110b3565b506080820151816004015560a082015181600501908161026e91906110b3565b5060c082015181600601908161028491906110b3565b509050507f636332d090a3ce7923247f61b33630c2b87536ffe4bb41e9250a40ff89f272c0878787878787876040516102c39796959493929190611185565b60405180910390a150505050505050565b6060806060806000606060006001886040516102f09190610e24565b9081526020016040518091039020600501805461030c90610e6a565b90500361034e576040517f08c379a00000000000000000000000000000000000000000000000000000000081526004016103459061126a565b60405180910390fd5b60006001886040516103609190610e24565b90815260200160405180910390206040518060e001604052908160008201805461038990610e6a565b80601f01602080910402602001604051908101604052809291908181526020018280546103b590610e6a565b80156104025780601f106103d757610100808354040283529160200191610402565b820191906000526020600020905b8154815290600101906020018083116103e557829003601f168201915b5050505050815260200160018201805461041b90610e6a565b80601f016020809104026020016040519081016040528092919081815260200182805461044790610e6a565b80156104945780601f1061046957610100808354040283529160200191610494565b820191906000526020600020905b81548152906001019060200180831161047757829003601f168201915b505050505081526020016002820180546104ad90610e6a565b80601f01602080910402602001604051908101604052809291908181526020018280546104d990610e6a565b80156105265780601f106104fb57610100808354040283529160200191610526565b820191906000526020600020905b81548152906001019060200180831161050957829003601f168201915b5050505050815260200160038201805461053f90610e6a565b80601f016020809104026020016040519081016040528092919081815260200182805461056b90610e6a565b80156105b85780601f1061058d576101008083540402835291602001916105b8565b820191906000526020600020905b81548152906001019060200180831161059b57829003601f168201915b50505050508152602001600482015481526020016005820180546105db90610e6a565b80601f016020809104026020016040519081016040528092919081815260200182805461060790610e6a565b80156106545780601f1061062957610100808354040283529160200191610654565b820191906000526020600020905b81548152906001019060200180831161063757829003601f168201915b5050505050815260200160068201805461066d90610e6a565b80601f016020809104026020016040519081016040528092919081815260200182805461069990610e6a565b80156106e65780601f106106bb576101008083540402835291602001916106e6565b820191906000526020600020905b8154815290600101906020018083116106c957829003601f168201915b5050505050815250509050806000015181602001518260400151836060015184608001518560c001519650965096509650965096505091939550919395565b61072d6107ab565b600073ffffffffffffffffffffffffffffffffffffffff168173ffffffffffffffffffffffffffffffffffffffff160361079f5760006040517f1e4fbdf7000000000000000000000000000000000000000000000000000000008152600401610796919061093f565b60405180910390fd5b6107a881610832565b50565b6107b36108f6565b73ffffffffffffffffffffffffffffffffffffffff166107d1610105565b73ffffffffffffffffffffffffffffffffffffffff1614610830576107f46108f6565b6040517f118cdaa7000000000000000000000000000000000000000000000000000000008152600401610827919061093f565b60405180910390fd5b565b60008060009054906101000a900473ffffffffffffffffffffffffffffffffffffffff169050816000806101000a81548173ffffffffffffffffffffffffffffffffffffffff021916908373ffffffffffffffffffffffffffffffffffffffff1602179055508173ffffffffffffffffffffffffffffffffffffffff168173ffffffffffffffffffffffffffffffffffffffff167f8be0079c531659141344cd1fd0a4f28419497f9722a3daafe3b4186f6b6457e060405160405180910390a35050565b600033905090565b600073ffffffffffffffffffffffffffffffffffffffff82169050919050565b6000610929826108fe565b9050919050565b6109398161091e565b82525050565b60006020820190506109546000830184610930565b92915050565b6000604051905090565b600080fd5b600080fd5b600080fd5b600080fd5b6000601f19601f8301169050919050565b7f4e487b7100000000000000000000000000000000000000000000000000000000600052604160045260246000fd5b6109c182610978565b810181811067ffffffffffffffff821117156109e0576109df610989565b5b80604052505050565b60006109f361095a565b90506109ff82826109b8565b919050565b600067ffffffffffffffff821115610a1f57610a1e610989565b5b610a2882610978565b9050602081019050919050565b82818337600083830152505050565b6000610a57610a5284610a04565b6109e9565b905082815260208101848484011115610a7357610a72610973565b5b610a7e848285610a35565b509392505050565b600082601f830112610a9b57610a9a61096e565b5b8135610aab848260208601610a44565b91505092915050565b6000819050919050565b610ac781610ab4565b8114610ad257600080fd5b50565b600081359050610ae481610abe565b92915050565b600080600080600080600060e0888a031215610b0957610b08610964565b5b600088013567ffffffffffffffff811115610b2757610b26610969565b5b610b338a828b01610a86565b975050602088013567ffffffffffffffff811115610b5457610b53610969565b5b610b608a828b01610a86565b965050604088013567ffffffffffffffff811115610b8157610b80610969565b5b610b8d8a828b01610a86565b955050606088013567ffffffffffffffff811115610bae57610bad610969565b5b610bba8a828b01610a86565b945050608088013567ffffffffffffffff811115610bdb57610bda610969565b5b610be78a828b01610a86565b93505060a0610bf88a828b01610ad5565b92505060c088013567ffffffffffffffff811115610c1957610c18610969565b5b610c258a828b01610a86565b91505092959891949750929550565b600060208284031215610c4a57610c49610964565b5b600082013567ffffffffffffffff811115610c6857610c67610969565b5b610c7484828501610a86565b91505092915050565b600081519050919050565b600082825260208201905092915050565b60005b83811015610cb7578082015181840152602081019050610c9c565b60008484015250505050565b6000610cce82610c7d565b610cd88185610c88565b9350610ce8818560208601610c99565b610cf181610978565b840191505092915050565b610d0581610ab4565b82525050565b600060c0820190508181036000830152610d258189610cc3565b90508181036020830152610d398188610cc3565b90508181036040830152610d4d8187610cc3565b90508181036060830152610d618186610cc3565b9050610d706080830185610cfc565b81810360a0830152610d828184610cc3565b9050979650505050505050565b610d988161091e565b8114610da357600080fd5b50565b600081359050610db581610d8f565b92915050565b600060208284031215610dd157610dd0610964565b5b6000610ddf84828501610da6565b91505092915050565b600081905092915050565b6000610dfe82610c7d565b610e088185610de8565b9350610e18818560208601610c99565b80840191505092915050565b6000610e308284610df3565b915081905092915050565b7f4e487b7100000000000000000000000000000000000000000000000000000000600052602260045260246000fd5b60006002820490506001821680610e8257607f821691505b602082108103610e9557610e94610e3b565b5b50919050565b7f436572746966696361746520616c726561647920657869737473000000000000600082015250565b6000610ed1601a83610c88565b9150610edc82610e9b565b602082019050919050565b60006020820190508181036000830152610f0081610ec4565b9050919050565b60008190508160005260206000209050919050565b60006020601f8301049050919050565b600082821b905092915050565b600060088302610f697fffffffffffffffffffffffffffffffffffffffffffffffffffffffffffffffff82610f2c565b610f738683610f2c565b95508019841693508086168417925050509392505050565b6000819050919050565b6000610fb0610fab610fa684610ab4565b610f8b565b610ab4565b9050919050565b6000819050919050565b610fca83610f95565b610fde610fd682610fb7565b848454610f39565b825550505050565b600090565b610ff3610fe6565b610ffe818484610fc1565b505050565b5b8181101561102257611017600082610feb565b600181019050611004565b5050565b601f8211156110675761103881610f07565b61104184610f1c565b81016020851015611050578190505b61106461105c85610f1c565b830182611003565b50505b505050565b600082821c905092915050565b600061108a6000198460080261106c565b1980831691505092915050565b60006110a38383611079565b9150826002028217905092915050565b6110bc82610c7d565b67ffffffffffffffff8111156110d5576110d4610989565b5b6110df8254610e6a565b6110ea828285611026565b600060209050601f83116001811461111d576000841561110b578287015190505b6111158582611097565b86555061117d565b601f19841661112b86610f07565b60005b828110156111535784890151825560018201915060208501945060208101905061112e565b86831015611170578489015161116c601f891682611079565b8355505b6001600288020188555050505b505050505050565b600060e082019050818103600083015261119f818a610cc3565b905081810360208301526111b38189610cc3565b905081810360408301526111c78188610cc3565b905081810360608301526111db8187610cc3565b905081810360808301526111ef8186610cc3565b90506111fe60a0830185610cfc565b81810360c08301526112108184610cc3565b905098975050505050505050565b7f4365727469666963617465206e6f7420666f756e640000000000000000000000600082015250565b6000611254601583610c88565b915061125f8261121e565b602082019050919050565b6000602082019050818103600083015261128381611247565b905091905056fea2646970667358221220e44daa4fd7264dd2e58e79d7709ec2382ed6c850f9a2c75e594f82af395d324e64736f6c63430008180033",
  "linkReferences": {},
  "deployedLinkReferences": {}
}