{
  "_format": "hh-sol-artifact-1",
  "contractName": "Certifications",
  "sourceName": "contracts/Certifications.sol",
  "abi": [
    {
      "inputs": [],
      "stateMutability": "nonpayable",
      "type": "constructor"
    },
    {
      "inputs": [
        {
          "internalType": "address",
          "name": "owner",
          "type": "address"
        }
      ],
      "name": "OwnableInvalidOwner",
      "type": "error"
    },
    {
      "inputs": [
        {
          "internalType": "address",
          "name": "account",
          "type": "address"
        }
      ],
      "name": "OwnableUnauthorizedAccount",
      "type": "error"
    },
    {
      "anonymous": false,
      "inputs": [
        {
          "indexed": false,
          "internalType": "string",
          "name": "identityDocument",
          "type": "string"
        },
        {
          "indexed": false,
          "internalType": "string",
          "name": "name",
          "type": "string"
        },
        {
          "indexed": false,
          "internalType": "string",
          "name": "institution",
          "type": "string"
        },
        {
          "indexed": false,
          "internalType": "string",
          "name": "courseName",
          "type": "string"
        },
        {
          "indexed": false,
          "internalType": "string",
          "name": "role",
          "type": "string"
        },
        {
          "indexed": false,
          "internalType": "uint256",
          "name": "completedHours",
          "type": "uint256"
        },
        {
          "indexed": false,
          "internalType": "string",
          "name": "email",
          "type": "string"
        }
      ],
      "name": "CertificateCreated",
      "type": "event"
    },
    {
      "anonymous": false,
      "inputs": [
        {
          "indexed": true,
          "internalType": "address",
          "name": "previousOwner",
          "type": "address"
        },
        {
          "indexed": true,
          "internalType": "address",
          "name": "newOwner",
          "type": "address"
        }
      ],
      "name": "OwnershipTransferred",
      "type": "event"
    },
    {
      "inputs": [
        {
          "internalType": "string",
          "name": "_identityDocument",
          "type": "string"
        },
        {
          "internalType": "string",
          "name": "_name",
          "type": "string"
        },
        {
          "internalType": "string",
          "name": "_institution",
          "type": "string"
        },
        {
          "internalType": "string",
          "name": "_courseName",
          "type": "string"
        },
        {
          "internalType": "string",
          "name": "_role",
          "type": "string"
        },
        {
          "internalType": "uint256",
          "name": "_completedHours",
          "type": "uint256"
        },
        {
          "internalType": "string",
          "name": "_email",
          "type": "string"
        }
      ],
      "name": "createCertificate",
      "outputs": [],
      "stateMutability": "nonpayable",
      "type": "function"
    },
    {
      "inputs": [
        {
          "internalType": "string",
          "name": "identityDocument",
          "type": "string"
        }
      ],
      "name": "getCertificate",
      "outputs": [
        {
          "internalType": "string",
          "name": "",
          "type": "string"
        },
        {
          "internalType": "string",
          "name": "",
          "type": "string"
        },
        {
          "internalType": "string",
          "name": "",
          "type": "string"
        },
        {
          "internalType": "string",
          "name": "",
          "type": "string"
        },
        {
          "internalType": "uint256",
          "name": "",
          "type": "uint256"
        },
        {
          "internalType": "string",
          "name": "",
          "type": "string"
        }
      ],
      "stateMutability": "view",
      "type": "function"
    },
    {
      "inputs": [],
      "name": "owner",
      "outputs": [
        {
          "internalType": "address",
          "name": "",
          "type": "address"
        }
      ],
      "stateMutability": "view",
      "type": "function"
    },
    {
      "inputs": [],
      "name": "renounceOwnership",
      "outputs": [],
      "stateMutability": "nonpayable",
      "type": "function"
    },
    {
      "inputs": [
        {
          "internalType": "address",
          "name": "newOwner",
          "type": "address"
        }
      ],
      "name": "transferOwnership",
      "outputs": [],
      "stateMutability": "nonpayable",
      "type": "function"
    }
  ],
  "bytecode": "0x608060405234801561001057600080fd5b5033600073ffffffffffffffffffffffffffffffffffffffff168173ffffffffffffffffffffffffffffffffffffffff16036100845760006040517f1e4fbdf700000000000000000000000000000000000000000000000000000000815260040161007b919061019e565b60405180910390fd5b6100938161009960201b60201c565b506101b9565b60008060009054906101000a900473ffffffffffffffffffffffffffffffffffffffff169050816000806101000a81548173ffffffffffffffffffffffffffffffffffffffff021916908373ffffffffffffffffffffffffffffffffffffffff1602179055508173ffffffffffffffffffffffffffffffffffffffff168173ffffffffffffffffffffffffffffffffffffffff167f8be0079c531659141344cd1fd0a4f28419497f9722a3daafe3b4186f6b6457e060405160405180910390a35050565b600073ffffffffffffffffffffffffffffffffffffffff82169050919050565b60006101888261015d565b9050919050565b6101988161017d565b82525050565b60006020820190506101b3600083018461018f565b92915050565b6111e480620001c96000396000f3fe608060405234801561001057600080fd5b50600436106100575760003560e01c8063715018a61461005c5780638da5cb5b14610066578063ec7d8dce14610084578063ed0f2e75146100a0578063f2fde38b146100d5575b600080fd5b6100646100f1565b005b61006e610105565b60405161007b91906108cf565b60405180910390f35b61009e60048036038101906100999190610a7a565b61012e565b005b6100ba60048036038101906100b59190610bc4565b610264565b6040516100cc96959493929190610c9b565b60405180910390f35b6100ef60048036038101906100ea9190610d4b565b6106b5565b005b6100f961073b565b61010360006107c2565b565b60008060009054906101000a900473ffffffffffffffffffffffffffffffffffffffff16905090565b61013661073b565b6040518060e00160405280878152602001868152602001858152602001848152602001838152602001888152602001828152506001886040516101799190610db4565b9081526020016040518091039020600082015181600001908161019c9190610fd7565b5060208201518160010190816101b29190610fd7565b5060408201518160020190816101c89190610fd7565b5060608201518160030190816101de9190610fd7565b506080820151816004015560a08201518160050190816101fe9190610fd7565b5060c08201518160060190816102149190610fd7565b509050507f636332d090a3ce7923247f61b33630c2b87536ffe4bb41e9250a40ff89f272c08787878787878760405161025397969594939291906110a9565b60405180910390a150505050505050565b6060806060806000606060006001886040516102809190610db4565b9081526020016040518091039020600501805461029c90610dfa565b9050036102de576040517f08c379a00000000000000000000000000000000000000000000000000000000081526004016102d59061118e565b60405180910390fd5b60006001886040516102f09190610db4565b90815260200160405180910390206040518060e001604052908160008201805461031990610dfa565b80601f016020809104026020016040519081016040528092919081815260200182805461034590610dfa565b80156103925780601f1061036757610100808354040283529160200191610392565b820191906000526020600020905b81548152906001019060200180831161037557829003601f168201915b505050505081526020016001820180546103ab90610dfa565b80601f01602080910402602001604051908101604052809291908181526020018280546103d790610dfa565b80156104245780601f106103f957610100808354040283529160200191610424565b820191906000526020600020905b81548152906001019060200180831161040757829003601f168201915b5050505050815260200160028201805461043d90610dfa565b80601f016020809104026020016040519081016040528092919081815260200182805461046990610dfa565b80156104b65780601f1061048b576101008083540402835291602001916104b6565b820191906000526020600020905b81548152906001019060200180831161049957829003601f168201915b505050505081526020016003820180546104cf90610dfa565b80601f01602080910402602001604051908101604052809291908181526020018280546104fb90610dfa565b80156105485780601f1061051d57610100808354040283529160200191610548565b820191906000526020600020905b81548152906001019060200180831161052b57829003601f168201915b505050505081526020016004820154815260200160058201805461056b90610dfa565b80601f016020809104026020016040519081016040528092919081815260200182805461059790610dfa565b80156105e45780601f106105b9576101008083540402835291602001916105e4565b820191906000526020600020905b8154815290600101906020018083116105c757829003601f168201915b505050505081526020016006820180546105fd90610dfa565b80601f016020809104026020016040519081016040528092919081815260200182805461062990610dfa565b80156106765780601f1061064b57610100808354040283529160200191610676565b820191906000526020600020905b81548152906001019060200180831161065957829003601f168201915b5050505050815250509050806000015181602001518260400151836060015184608001518560c001519650965096509650965096505091939550919395565b6106bd61073b565b600073ffffffffffffffffffffffffffffffffffffffff168173ffffffffffffffffffffffffffffffffffffffff160361072f5760006040517f1e4fbdf700000000000000000000000000000000000000000000000000000000815260040161072691906108cf565b60405180910390fd5b610738816107c2565b50565b610743610886565b73ffffffffffffffffffffffffffffffffffffffff16610761610105565b73ffffffffffffffffffffffffffffffffffffffff16146107c057610784610886565b6040517f118cdaa70000000000000000000000000000000000000000000000000000000081526004016107b791906108cf565b60405180910390fd5b565b60008060009054906101000a900473ffffffffffffffffffffffffffffffffffffffff169050816000806101000a81548173ffffffffffffffffffffffffffffffffffffffff021916908373ffffffffffffffffffffffffffffffffffffffff1602179055508173ffffffffffffffffffffffffffffffffffffffff168173ffffffffffffffffffffffffffffffffffffffff167f8be0079c531659141344cd1fd0a4f28419497f9722a3daafe3b4186f6b6457e060405160405180910390a35050565b600033905090565b600073ffffffffffffffffffffffffffffffffffffffff82169050919050565b60006108b98261088e565b9050919050565b6108c9816108ae565b82525050565b60006020820190506108e460008301846108c0565b92915050565b6000604051905090565b600080fd5b600080fd5b600080fd5b600080fd5b6000601f19601f8301169050919050565b7f4e487b7100000000000000000000000000000000000000000000000000000000600052604160045260246000fd5b61095182610908565b810181811067ffffffffffffffff821117156109705761096f610919565b5b80604052505050565b60006109836108ea565b905061098f8282610948565b919050565b600067ffffffffffffffff8211156109af576109ae610919565b5b6109b882610908565b9050602081019050919050565b82818337600083830152505050565b60006109e76109e284610994565b610979565b905082815260208101848484011115610a0357610a02610903565b5b610a0e8482856109c5565b509392505050565b600082601f830112610a2b57610a2a6108fe565b5b8135610a3b8482602086016109d4565b91505092915050565b6000819050919050565b610a5781610a44565b8114610a6257600080fd5b50565b600081359050610a7481610a4e565b92915050565b600080600080600080600060e0888a031215610a9957610a986108f4565b5b600088013567ffffffffffffffff811115610ab757610ab66108f9565b5b610ac38a828b01610a16565b975050602088013567ffffffffffffffff811115610ae457610ae36108f9565b5b610af08a828b01610a16565b965050604088013567ffffffffffffffff811115610b1157610b106108f9565b5b610b1d8a828b01610a16565b955050606088013567ffffffffffffffff811115610b3e57610b3d6108f9565b5b610b4a8a828b01610a16565b945050608088013567ffffffffffffffff811115610b6b57610b6a6108f9565b5b610b778a828b01610a16565b93505060a0610b888a828b01610a65565b92505060c088013567ffffffffffffffff811115610ba957610ba86108f9565b5b610bb58a828b01610a16565b91505092959891949750929550565b600060208284031215610bda57610bd96108f4565b5b600082013567ffffffffffffffff811115610bf857610bf76108f9565b5b610c0484828501610a16565b91505092915050565b600081519050919050565b600082825260208201905092915050565b60005b83811015610c47578082015181840152602081019050610c2c565b60008484015250505050565b6000610c5e82610c0d565b610c688185610c18565b9350610c78818560208601610c29565b610c8181610908565b840191505092915050565b610c9581610a44565b82525050565b600060c0820190508181036000830152610cb58189610c53565b90508181036020830152610cc98188610c53565b90508181036040830152610cdd8187610c53565b90508181036060830152610cf18186610c53565b9050610d006080830185610c8c565b81810360a0830152610d128184610c53565b9050979650505050505050565b610d28816108ae565b8114610d3357600080fd5b50565b600081359050610d4581610d1f565b92915050565b600060208284031215610d6157610d606108f4565b5b6000610d6f84828501610d36565b91505092915050565b600081905092915050565b6000610d8e82610c0d565b610d988185610d78565b9350610da8818560208601610c29565b80840191505092915050565b6000610dc08284610d83565b915081905092915050565b7f4e487b7100000000000000000000000000000000000000000000000000000000600052602260045260246000fd5b60006002820490506001821680610e1257607f821691505b602082108103610e2557610e24610dcb565b5b50919050565b60008190508160005260206000209050919050565b60006020601f8301049050919050565b600082821b905092915050565b600060088302610e8d7fffffffffffffffffffffffffffffffffffffffffffffffffffffffffffffffff82610e50565b610e978683610e50565b95508019841693508086168417925050509392505050565b6000819050919050565b6000610ed4610ecf610eca84610a44565b610eaf565b610a44565b9050919050565b6000819050919050565b610eee83610eb9565b610f02610efa82610edb565b848454610e5d565b825550505050565b600090565b610f17610f0a565b610f22818484610ee5565b505050565b5b81811015610f4657610f3b600082610f0f565b600181019050610f28565b5050565b601f821115610f8b57610f5c81610e2b565b610f6584610e40565b81016020851015610f74578190505b610f88610f8085610e40565b830182610f27565b50505b505050565b600082821c905092915050565b6000610fae60001984600802610f90565b1980831691505092915050565b6000610fc78383610f9d565b9150826002028217905092915050565b610fe082610c0d565b67ffffffffffffffff811115610ff957610ff8610919565b5b6110038254610dfa565b61100e828285610f4a565b600060209050601f831160018114611041576000841561102f578287015190505b6110398582610fbb565b8655506110a1565b601f19841661104f86610e2b565b60005b8281101561107757848901518255600182019150602085019450602081019050611052565b868310156110945784890151611090601f891682610f9d565b8355505b6001600288020188555050505b505050505050565b600060e08201905081810360008301526110c3818a610c53565b905081810360208301526110d78189610c53565b905081810360408301526110eb8188610c53565b905081810360608301526110ff8187610c53565b905081810360808301526111138186610c53565b905061112260a0830185610c8c565b81810360c08301526111348184610c53565b905098975050505050505050565b7f4365727469666963617465206e6f7420666f756e640000000000000000000000600082015250565b6000611178601583610c18565b915061118382611142565b602082019050919050565b600060208201905081810360008301526111a78161116b565b905091905056fea2646970667358221220abcc6f4acf0253de3a2f916898d1758bd996ddb72f85e473c722397bcb5d29de64736f6c63430008180033",
  "linkReferences": {},
  "deployedLinkReferences": {}
}