{
  "_format": "hh-sol-artifact-1",
  "contractName": "OroToken",
  "sourceName": "contracts/Oro.sol",
  "abi": [
    {
      "inputs": [
        {
          "internalType": "address",
          "name": "initialOwner",
          "type": "address"
        }
      ],
      "stateMutability": "nonpayable",
      "type": "constructor"
    },
    {
      "inputs": [
        {
          "internalType": "address",
          "name": "spender",
          "type": "address"
        },
        {
          "internalType": "uint256",
          "name": "allowance",
          "type": "uint256"
        },
        {
          "internalType": "uint256",
          "name": "needed",
          "type": "uint256"
        }
      ],
      "name": "ERC20InsufficientAllowance",
      "type": "error"
    },
    {
      "inputs": [
        {
          "internalType": "address",
          "name": "sender",
          "type": "address"
        },
        {
          "internalType": "uint256",
          "name": "balance",
          "type": "uint256"
        },
        {
          "internalType": "uint256",
          "name": "needed",
          "type": "uint256"
        }
      ],
      "name": "ERC20InsufficientBalance",
      "type": "error"
    },
    {
      "inputs": [
        {
          "internalType": "address",
          "name": "approver",
          "type": "address"
        }
      ],
      "name": "ERC20InvalidApprover",
      "type": "error"
    },
    {
      "inputs": [
        {
          "internalType": "address",
          "name": "receiver",
          "type": "address"
        }
      ],
      "name": "ERC20InvalidReceiver",
      "type": "error"
    },
    {
      "inputs": [
        {
          "internalType": "address",
          "name": "sender",
          "type": "address"
        }
      ],
      "name": "ERC20InvalidSender",
      "type": "error"
    },
    {
      "inputs": [
        {
          "internalType": "address",
          "name": "spender",
          "type": "address"
        }
      ],
      "name": "ERC20InvalidSpender",
      "type": "error"
    },
    {
      "inputs": [
        {
          "internalType": "address",
          "name": "owner",
          "type": "address"
        }
      ],
      "name": "OwnableInvalidOwner",
      "type": "error"
    },
    {
      "inputs": [
        {
          "internalType": "address",
          "name": "account",
          "type": "address"
        }
      ],
      "name": "OwnableUnauthorizedAccount",
      "type": "error"
    },
    {
      "anonymous": false,
      "inputs": [
        {
          "indexed": true,
          "internalType": "address",
          "name": "owner",
          "type": "address"
        },
        {
          "indexed": true,
          "internalType": "address",
          "name": "spender",
          "type": "address"
        },
        {
          "indexed": false,
          "internalType": "uint256",
          "name": "value",
          "type": "uint256"
        }
      ],
      "name": "Approval",
      "type": "event"
    },
    {
      "anonymous": false,
      "inputs": [
        {
          "indexed": true,
          "internalType": "address",
          "name": "previousOwner",
          "type": "address"
        },
        {
          "indexed": true,
          "internalType": "address",
          "name": "newOwner",
          "type": "address"
        }
      ],
      "name": "OwnershipTransferred",
      "type": "event"
    },
    {
      "anonymous": false,
      "inputs": [
        {
          "indexed": true,
          "internalType": "address",
          "name": "from",
          "type": "address"
        },
        {
          "indexed": true,
          "internalType": "address",
          "name": "to",
          "type": "address"
        },
        {
          "indexed": false,
          "internalType": "uint256",
          "name": "value",
          "type": "uint256"
        }
      ],
      "name": "Transfer",
      "type": "event"
    },
    {
      "inputs": [
        {
          "internalType": "address",
          "name": "owner",
          "type": "address"
        },
        {
          "internalType": "address",
          "name": "spender",
          "type": "address"
        }
      ],
      "name": "allowance",
      "outputs": [
        {
          "internalType": "uint256",
          "name": "",
          "type": "uint256"
        }
      ],
      "stateMutability": "view",
      "type": "function"
    },
    {
      "inputs": [
        {
          "internalType": "address",
          "name": "spender",
          "type": "address"
        },
        {
          "internalType": "uint256",
          "name": "value",
          "type": "uint256"
        }
      ],
      "name": "approve",
      "outputs": [
        {
          "internalType": "bool",
          "name": "",
          "type": "bool"
        }
      ],
      "stateMutability": "nonpayable",
      "type": "function"
    },
    {
      "inputs": [
        {
          "internalType": "address",
          "name": "account",
          "type": "address"
        }
      ],
      "name": "balanceOf",
      "outputs": [
        {
          "internalType": "uint256",
          "name": "",
          "type": "uint256"
        }
      ],
      "stateMutability": "view",
      "type": "function"
    },
    {
      "inputs": [],
      "name": "decimals",
      "outputs": [
        {
          "internalType": "uint8",
          "name": "",
          "type": "uint8"
        }
      ],
      "stateMutability": "view",
      "type": "function"
    },
    {
      "inputs": [
        {
          "internalType": "uint256",
          "name": "ratio",
          "type": "uint256"
        }
      ],
      "name": "editConvetionRate",
      "outputs": [
        {
          "internalType": "bool",
          "name": "",
          "type": "bool"
        }
      ],
      "stateMutability": "nonpayable",
      "type": "function"
    },
    {
      "inputs": [
        {
          "internalType": "uint256",
          "name": "oroAmount",
          "type": "uint256"
        }
      ],
      "name": "mint",
      "outputs": [],
      "stateMutability": "nonpayable",
      "type": "function"
    },
    {
      "inputs": [],
      "name": "name",
      "outputs": [
        {
          "internalType": "string",
          "name": "",
          "type": "string"
        }
      ],
      "stateMutability": "view",
      "type": "function"
    },
    {
      "inputs": [],
      "name": "oroConvetionRate",
      "outputs": [
        {
          "internalType": "uint256",
          "name": "",
          "type": "uint256"
        }
      ],
      "stateMutability": "view",
      "type": "function"
    },
    {
      "inputs": [],
      "name": "owner",
      "outputs": [
        {
          "internalType": "address",
          "name": "",
          "type": "address"
        }
      ],
      "stateMutability": "view",
      "type": "function"
    },
    {
      "inputs": [],
      "name": "renounceOwnership",
      "outputs": [],
      "stateMutability": "nonpayable",
      "type": "function"
    },
    {
      "inputs": [],
      "name": "symbol",
      "outputs": [
        {
          "internalType": "string",
          "name": "",
          "type": "string"
        }
      ],
      "stateMutability": "view",
      "type": "function"
    },
    {
      "inputs": [],
      "name": "totalSupply",
      "outputs": [
        {
          "internalType": "uint256",
          "name": "",
          "type": "uint256"
        }
      ],
      "stateMutability": "view",
      "type": "function"
    },
    {
      "inputs": [
        {
          "internalType": "address",
          "name": "recipient",
          "type": "address"
        },
        {
          "internalType": "uint256",
          "name": "amount",
          "type": "uint256"
        }
      ],
      "name": "transfer",
      "outputs": [
        {
          "internalType": "bool",
          "name": "",
          "type": "bool"
        }
      ],
      "stateMutability": "nonpayable",
      "type": "function"
    },
    {
      "inputs": [
        {
          "internalType": "address",
          "name": "from",
          "type": "address"
        },
        {
          "internalType": "address",
          "name": "to",
          "type": "address"
        },
        {
          "internalType": "uint256",
          "name": "value",
          "type": "uint256"
        }
      ],
      "name": "transferFrom",
      "outputs": [
        {
          "internalType": "bool",
          "name": "",
          "type": "bool"
        }
      ],
      "stateMutability": "nonpayable",
      "type": "function"
    },
    {
      "inputs": [
        {
          "internalType": "address",
          "name": "recipient",
          "type": "address"
        },
        {
          "internalType": "uint256",
          "name": "amount",
          "type": "uint256"
        }
      ],
      "name": "transferFromContract",
      "outputs": [],
      "stateMutability": "nonpayable",
      "type": "function"
    },
    {
      "inputs": [
        {
          "internalType": "address",
          "name": "newOwner",
          "type": "address"
        }
      ],
      "name": "transferOwnership",
      "outputs": [],
      "stateMutability": "nonpayable",
      "type": "function"
    },
    {
      "inputs": [
        {
          "internalType": "uint256",
          "name": "oroAmount",
          "type": "uint256"
        },
        {
          "internalType": "address",
          "name": "wallet",
          "type": "address"
        }
      ],
      "name": "withdrawal",
      "outputs": [],
      "stateMutability": "nonpayable",
      "type": "function"
    },
    {
      "stateMutability": "payable",
      "type": "receive"
    }
  ],
  "bytecode": "0x608060405264037e11d6006006553480156200001a57600080fd5b50604051620022fa380380620022fa83398181016040528101906200004091906200056b565b806040518060400160405280600381526020017f6f726f00000000000000000000000000000000000000000000000000000000008152506040518060400160405280600381526020017f4f524f00000000000000000000000000000000000000000000000000000000008152508160039081620000be919062000817565b508060049081620000d0919062000817565b505050600073ffffffffffffffffffffffffffffffffffffffff168173ffffffffffffffffffffffffffffffffffffffff1603620001485760006040517f1e4fbdf70000000000000000000000000000000000000000000000000000000081526004016200013f91906200090f565b60405180910390fd5b62000159816200017e60201b60201c565b5062000177306a52b7d2dcc80cd2e40000006200024460201b60201c565b5062000a01565b6000600560009054906101000a900473ffffffffffffffffffffffffffffffffffffffff16905081600560006101000a81548173ffffffffffffffffffffffffffffffffffffffff021916908373ffffffffffffffffffffffffffffffffffffffff1602179055508173ffffffffffffffffffffffffffffffffffffffff168173ffffffffffffffffffffffffffffffffffffffff167f8be0079c531659141344cd1fd0a4f28419497f9722a3daafe3b4186f6b6457e060405160405180910390a35050565b600073ffffffffffffffffffffffffffffffffffffffff168273ffffffffffffffffffffffffffffffffffffffff1603620002b95760006040517fec442f05000000000000000000000000000000000000000000000000000000008152600401620002b091906200090f565b60405180910390fd5b620002cd60008383620002d160201b60201c565b5050565b600073ffffffffffffffffffffffffffffffffffffffff168373ffffffffffffffffffffffffffffffffffffffff1603620003275780600260008282546200031a91906200095b565b92505081905550620003fd565b60008060008573ffffffffffffffffffffffffffffffffffffffff1673ffffffffffffffffffffffffffffffffffffffff16815260200190815260200160002054905081811015620003b6578381836040517fe450d38c000000000000000000000000000000000000000000000000000000008152600401620003ad93929190620009a7565b60405180910390fd5b8181036000808673ffffffffffffffffffffffffffffffffffffffff1673ffffffffffffffffffffffffffffffffffffffff16815260200190815260200160002081905550505b600073ffffffffffffffffffffffffffffffffffffffff168273ffffffffffffffffffffffffffffffffffffffff160362000448578060026000828254039250508190555062000495565b806000808473ffffffffffffffffffffffffffffffffffffffff1673ffffffffffffffffffffffffffffffffffffffff168152602001908152602001600020600082825401925050819055505b8173ffffffffffffffffffffffffffffffffffffffff168373ffffffffffffffffffffffffffffffffffffffff167fddf252ad1be2c89b69c2b068fc378daa952ba7f163c4a11628f55a4df523b3ef83604051620004f49190620009e4565b60405180910390a3505050565b600080fd5b600073ffffffffffffffffffffffffffffffffffffffff82169050919050565b6000620005338262000506565b9050919050565b620005458162000526565b81146200055157600080fd5b50565b60008151905062000565816200053a565b92915050565b60006020828403121562000584576200058362000501565b5b6000620005948482850162000554565b91505092915050565b600081519050919050565b7f4e487b7100000000000000000000000000000000000000000000000000000000600052604160045260246000fd5b7f4e487b7100000000000000000000000000000000000000000000000000000000600052602260045260246000fd5b600060028204905060018216806200061f57607f821691505b602082108103620006355762000634620005d7565b5b50919050565b60008190508160005260206000209050919050565b60006020601f8301049050919050565b600082821b905092915050565b6000600883026200069f7fffffffffffffffffffffffffffffffffffffffffffffffffffffffffffffffff8262000660565b620006ab868362000660565b95508019841693508086168417925050509392505050565b6000819050919050565b6000819050919050565b6000620006f8620006f2620006ec84620006c3565b620006cd565b620006c3565b9050919050565b6000819050919050565b6200071483620006d7565b6200072c6200072382620006ff565b8484546200066d565b825550505050565b600090565b6200074362000734565b6200075081848462000709565b505050565b5b8181101562000778576200076c60008262000739565b60018101905062000756565b5050565b601f821115620007c75762000791816200063b565b6200079c8462000650565b81016020851015620007ac578190505b620007c4620007bb8562000650565b83018262000755565b50505b505050565b600082821c905092915050565b6000620007ec60001984600802620007cc565b1980831691505092915050565b6000620008078383620007d9565b9150826002028217905092915050565b62000822826200059d565b67ffffffffffffffff8111156200083e576200083d620005a8565b5b6200084a825462000606565b620008578282856200077c565b600060209050601f8311600181146200088f57600084156200087a578287015190505b620008868582620007f9565b865550620008f6565b601f1984166200089f866200063b565b60005b82811015620008c957848901518255600182019150602085019450602081019050620008a2565b86831015620008e95784890151620008e5601f891682620007d9565b8355505b6001600288020188555050505b505050505050565b620009098162000526565b82525050565b6000602082019050620009266000830184620008fe565b92915050565b7f4e487b7100000000000000000000000000000000000000000000000000000000600052601160045260246000fd5b60006200096882620006c3565b91506200097583620006c3565b925082820190508082111562000990576200098f6200092c565b5b92915050565b620009a181620006c3565b82525050565b6000606082019050620009be6000830186620008fe565b620009cd602083018562000996565b620009dc604083018462000996565b949350505050565b6000602082019050620009fb600083018462000996565b92915050565b6118e98062000a116000396000f3fe6080604052600436106101025760003560e01c8063397730dd1161009557806395d89b411161006457806395d89b4114610342578063a0712d681461036d578063a9059cbb14610396578063dd62ed3e146103d3578063f2fde38b1461041057610109565b8063397730dd1461028657806370a08231146102c3578063715018a6146103005780638da5cb5b1461031757610109565b8063190d7c55116100d1578063190d7c55146101cc5780631a88f306146101f557806323b872dd1461021e578063313ce5671461025b57610109565b806306fdde031461010e57806307ba705014610139578063095ea7b31461016457806318160ddd146101a157610109565b3661010957005b600080fd5b34801561011a57600080fd5b50610123610439565b6040516101309190611200565b60405180910390f35b34801561014557600080fd5b5061014e6104cb565b60405161015b919061123b565b60405180910390f35b34801561017057600080fd5b5061018b600480360381019061018691906112e5565b6104d1565b6040516101989190611340565b60405180910390f35b3480156101ad57600080fd5b506101b66104f4565b6040516101c3919061123b565b60405180910390f35b3480156101d857600080fd5b506101f360048036038101906101ee919061135b565b6104fe565b005b34801561020157600080fd5b5061021c600480360381019061021791906112e5565b6105f5565b005b34801561022a57600080fd5b506102456004803603810190610240919061139b565b610657565b6040516102529190611340565b60405180910390f35b34801561026757600080fd5b50610270610686565b60405161027d919061140a565b60405180910390f35b34801561029257600080fd5b506102ad60048036038101906102a89190611425565b61068f565b6040516102ba9190611340565b60405180910390f35b3480156102cf57600080fd5b506102ea60048036038101906102e59190611452565b6106ec565b6040516102f7919061123b565b60405180910390f35b34801561030c57600080fd5b50610315610734565b005b34801561032357600080fd5b5061032c610748565b604051610339919061148e565b60405180910390f35b34801561034e57600080fd5b50610357610772565b6040516103649190611200565b60405180910390f35b34801561037957600080fd5b50610394600480360381019061038f9190611425565b610804565b005b3480156103a257600080fd5b506103bd60048036038101906103b891906112e5565b6108b7565b6040516103ca9190611340565b60405180910390f35b3480156103df57600080fd5b506103fa60048036038101906103f591906114a9565b6108d3565b604051610407919061123b565b60405180910390f35b34801561041c57600080fd5b5061043760048036038101906104329190611452565b61095a565b005b60606003805461044890611518565b80601f016020809104026020016040519081016040528092919081815260200182805461047490611518565b80156104c15780601f10610496576101008083540402835291602001916104c1565b820191906000526020600020905b8154815290600101906020018083116104a457829003601f168201915b5050505050905090565b60065481565b6000806104dc6109e0565b90506104e98185856109e8565b600191505092915050565b6000600254905090565b81610508336106ec565b1015610549576040517f08c379a000000000000000000000000000000000000000000000000000000000815260040161054090611595565b60405180910390fd5b60006006548361055991906115e4565b90508047101561059e576040517f08c379a000000000000000000000000000000000000000000000000000000000815260040161059590611698565b60405180910390fd5b6105a93330856109fa565b8173ffffffffffffffffffffffffffffffffffffffff166108fc829081150290604051600060405180830381858888f193505050501580156105ef573d6000803e3d6000fd5b50505050565b6105fd610aee565b80610607306106ec565b1015610648576040517f08c379a000000000000000000000000000000000000000000000000000000000815260040161063f90611704565b60405180910390fd5b6106533083836109fa565b5050565b6000806106626109e0565b905061066f858285610b75565b61067a8585856109fa565b60019150509392505050565b60006012905090565b6000610699610aee565b600082116106dc576040517f08c379a00000000000000000000000000000000000000000000000000000000081526004016106d390611796565b60405180910390fd5b8160068190555060019050919050565b60008060008373ffffffffffffffffffffffffffffffffffffffff1673ffffffffffffffffffffffffffffffffffffffff168152602001908152602001600020549050919050565b61073c610aee565b6107466000610c09565b565b6000600560009054906101000a900473ffffffffffffffffffffffffffffffffffffffff16905090565b60606004805461078190611518565b80601f01602080910402602001604051908101604052809291908181526020018280546107ad90611518565b80156107fa5780601f106107cf576101008083540402835291602001916107fa565b820191906000526020600020905b8154815290600101906020018083116107dd57829003601f168201915b5050505050905090565b61080c610aee565b60006006548261081c91906115e4565b905080471015610861576040517f08c379a000000000000000000000000000000000000000000000000000000000815260040161085890611828565b60405180910390fd5b600073ffffffffffffffffffffffffffffffffffffffff166108fc829081150290604051600060405180830381858888f193505050501580156108a8573d6000803e3d6000fd5b506108b33083610ccf565b5050565b60006108c1610aee565b6108cb8383610d51565b905092915050565b6000600160008473ffffffffffffffffffffffffffffffffffffffff1673ffffffffffffffffffffffffffffffffffffffff16815260200190815260200160002060008373ffffffffffffffffffffffffffffffffffffffff1673ffffffffffffffffffffffffffffffffffffffff16815260200190815260200160002054905092915050565b610962610aee565b600073ffffffffffffffffffffffffffffffffffffffff168173ffffffffffffffffffffffffffffffffffffffff16036109d45760006040517f1e4fbdf70000000000000000000000000000000000000000000000000000000081526004016109cb919061148e565b60405180910390fd5b6109dd81610c09565b50565b600033905090565b6109f58383836001610d74565b505050565b600073ffffffffffffffffffffffffffffffffffffffff168373ffffffffffffffffffffffffffffffffffffffff1603610a6c5760006040517f96c6fd1e000000000000000000000000000000000000000000000000000000008152600401610a63919061148e565b60405180910390fd5b600073ffffffffffffffffffffffffffffffffffffffff168273ffffffffffffffffffffffffffffffffffffffff1603610ade5760006040517fec442f05000000000000000000000000000000000000000000000000000000008152600401610ad5919061148e565b60405180910390fd5b610ae9838383610f4b565b505050565b610af66109e0565b73ffffffffffffffffffffffffffffffffffffffff16610b14610748565b73ffffffffffffffffffffffffffffffffffffffff1614610b7357610b376109e0565b6040517f118cdaa7000000000000000000000000000000000000000000000000000000008152600401610b6a919061148e565b60405180910390fd5b565b6000610b8184846108d3565b90507fffffffffffffffffffffffffffffffffffffffffffffffffffffffffffffffff8114610c035781811015610bf3578281836040517ffb8f41b2000000000000000000000000000000000000000000000000000000008152600401610bea93929190611848565b60405180910390fd5b610c0284848484036000610d74565b5b50505050565b6000600560009054906101000a900473ffffffffffffffffffffffffffffffffffffffff16905081600560006101000a81548173ffffffffffffffffffffffffffffffffffffffff021916908373ffffffffffffffffffffffffffffffffffffffff1602179055508173ffffffffffffffffffffffffffffffffffffffff168173ffffffffffffffffffffffffffffffffffffffff167f8be0079c531659141344cd1fd0a4f28419497f9722a3daafe3b4186f6b6457e060405160405180910390a35050565b600073ffffffffffffffffffffffffffffffffffffffff168273ffffffffffffffffffffffffffffffffffffffff1603610d415760006040517fec442f05000000000000000000000000000000000000000000000000000000008152600401610d38919061148e565b60405180910390fd5b610d4d60008383610f4b565b5050565b600080610d5c6109e0565b9050610d698185856109fa565b600191505092915050565b600073ffffffffffffffffffffffffffffffffffffffff168473ffffffffffffffffffffffffffffffffffffffff1603610de65760006040517fe602df05000000000000000000000000000000000000000000000000000000008152600401610ddd919061148e565b60405180910390fd5b600073ffffffffffffffffffffffffffffffffffffffff168373ffffffffffffffffffffffffffffffffffffffff1603610e585760006040517f94280d62000000000000000000000000000000000000000000000000000000008152600401610e4f919061148e565b60405180910390fd5b81600160008673ffffffffffffffffffffffffffffffffffffffff1673ffffffffffffffffffffffffffffffffffffffff16815260200190815260200160002060008573ffffffffffffffffffffffffffffffffffffffff1673ffffffffffffffffffffffffffffffffffffffff168152602001908152602001600020819055508015610f45578273ffffffffffffffffffffffffffffffffffffffff168473ffffffffffffffffffffffffffffffffffffffff167f8c5be1e5ebec7d5bd14f71427d1e84f3dd0314c0f7b2291e5b200ac8c7c3b92584604051610f3c919061123b565b60405180910390a35b50505050565b600073ffffffffffffffffffffffffffffffffffffffff168373ffffffffffffffffffffffffffffffffffffffff1603610f9d578060026000828254610f91919061187f565b92505081905550611070565b60008060008573ffffffffffffffffffffffffffffffffffffffff1673ffffffffffffffffffffffffffffffffffffffff16815260200190815260200160002054905081811015611029578381836040517fe450d38c00000000000000000000000000000000000000000000000000000000815260040161102093929190611848565b60405180910390fd5b8181036000808673ffffffffffffffffffffffffffffffffffffffff1673ffffffffffffffffffffffffffffffffffffffff16815260200190815260200160002081905550505b600073ffffffffffffffffffffffffffffffffffffffff168273ffffffffffffffffffffffffffffffffffffffff16036110b95780600260008282540392505081905550611106565b806000808473ffffffffffffffffffffffffffffffffffffffff1673ffffffffffffffffffffffffffffffffffffffff168152602001908152602001600020600082825401925050819055505b8173ffffffffffffffffffffffffffffffffffffffff168373ffffffffffffffffffffffffffffffffffffffff167fddf252ad1be2c89b69c2b068fc378daa952ba7f163c4a11628f55a4df523b3ef83604051611163919061123b565b60405180910390a3505050565b600081519050919050565b600082825260208201905092915050565b60005b838110156111aa57808201518184015260208101905061118f565b60008484015250505050565b6000601f19601f8301169050919050565b60006111d282611170565b6111dc818561117b565b93506111ec81856020860161118c565b6111f5816111b6565b840191505092915050565b6000602082019050818103600083015261121a81846111c7565b905092915050565b6000819050919050565b61123581611222565b82525050565b6000602082019050611250600083018461122c565b92915050565b600080fd5b600073ffffffffffffffffffffffffffffffffffffffff82169050919050565b60006112868261125b565b9050919050565b6112968161127b565b81146112a157600080fd5b50565b6000813590506112b38161128d565b92915050565b6112c281611222565b81146112cd57600080fd5b50565b6000813590506112df816112b9565b92915050565b600080604083850312156112fc576112fb611256565b5b600061130a858286016112a4565b925050602061131b858286016112d0565b9150509250929050565b60008115159050919050565b61133a81611325565b82525050565b60006020820190506113556000830184611331565b92915050565b6000806040838503121561137257611371611256565b5b6000611380858286016112d0565b9250506020611391858286016112a4565b9150509250929050565b6000806000606084860312156113b4576113b3611256565b5b60006113c2868287016112a4565b93505060206113d3868287016112a4565b92505060406113e4868287016112d0565b9150509250925092565b600060ff82169050919050565b611404816113ee565b82525050565b600060208201905061141f60008301846113fb565b92915050565b60006020828403121561143b5761143a611256565b5b6000611449848285016112d0565b91505092915050565b60006020828403121561146857611467611256565b5b6000611476848285016112a4565b91505092915050565b6114888161127b565b82525050565b60006020820190506114a3600083018461147f565b92915050565b600080604083850312156114c0576114bf611256565b5b60006114ce858286016112a4565b92505060206114df858286016112a4565b9150509250929050565b7f4e487b7100000000000000000000000000000000000000000000000000000000600052602260045260246000fd5b6000600282049050600182168061153057607f821691505b602082108103611543576115426114e9565b5b50919050565b7f496e73756666696369656e74206f726f2062616c616e63650000000000000000600082015250565b600061157f60188361117b565b915061158a82611549565b602082019050919050565b600060208201905081810360008301526115ae81611572565b9050919050565b7f4e487b7100000000000000000000000000000000000000000000000000000000600052601160045260246000fd5b60006115ef82611222565b91506115fa83611222565b925082820261160881611222565b9150828204841483151761161f5761161e6115b5565b5b5092915050565b7f436f6e74726163742068617320696e73756666696369656e74204b494920746f60008201527f207769746864726177616c000000000000000000000000000000000000000000602082015250565b6000611682602b8361117b565b915061168d82611626565b604082019050919050565b600060208201905081810360008301526116b181611675565b9050919050565b7f4e6f7420656e6f75676820746f6b656e7320696e20636f6e7472616374000000600082015250565b60006116ee601d8361117b565b91506116f9826116b8565b602082019050919050565b6000602082019050818103600083015261171d816116e1565b9050919050565b7f796f75206d7573742070726f7669646520612076616c696420636f6e7665727460008201527f696f6e20726174696f0000000000000000000000000000000000000000000000602082015250565b600061178060298361117b565b915061178b82611724565b604082019050919050565b600060208201905081810360008301526117af81611773565b9050919050565b7f4e6f7420656e6f75677468206b696920696e20636f6e747261637420746f206d60008201527f696e74206f726f00000000000000000000000000000000000000000000000000602082015250565b600061181260278361117b565b915061181d826117b6565b604082019050919050565b6000602082019050818103600083015261184181611805565b9050919050565b600060608201905061185d600083018661147f565b61186a602083018561122c565b611877604083018461122c565b949350505050565b600061188a82611222565b915061189583611222565b92508282019050808211156118ad576118ac6115b5565b5b9291505056fea26469706673582212203b723fbf3ae210a81dd1a02ed92b9e1b771647293048db8efcbdb9803fd4c54a64736f6c63430008180033",
  "linkReferences": {},
  "deployedLinkReferences": {}
}