{
  "_format": "hh-sol-artifact-1",
  "contractName": "SignTC",
  "sourceName": "contracts/SignTC.sol",
  "abi": [
    {
      "inputs": [
        {
          "internalType": "address",
          "name": "initialOwner",
          "type": "address"
        }
      ],
      "stateMutability": "nonpayable",
      "type": "constructor"
    },
    {
      "inputs": [
        {
          "internalType": "address",
          "name": "owner",
          "type": "address"
        }
      ],
      "name": "OwnableInvalidOwner",
      "type": "error"
    },
    {
      "inputs": [
        {
          "internalType": "address",
          "name": "account",
          "type": "address"
        }
      ],
      "name": "OwnableUnauthorizedAccount",
      "type": "error"
    },
    {
      "anonymous": false,
      "inputs": [
        {
          "indexed": true,
          "internalType": "address",
          "name": "previousOwner",
          "type": "address"
        },
        {
          "indexed": true,
          "internalType": "address",
          "name": "newOwner",
          "type": "address"
        }
      ],
      "name": "OwnershipTransferred",
      "type": "event"
    },
    {
      "anonymous": false,
      "inputs": [
        {
          "indexed": true,
          "internalType": "string",
          "name": "username",
          "type": "string"
        },
        {
          "indexed": false,
          "internalType": "string",
          "name": "email",
          "type": "string"
        },
        {
          "indexed": false,
          "internalType": "string",
          "name": "signDate",
          "type": "string"
        }
      ],
      "name": "TCSigned",
      "type": "event"
    },
    {
      "inputs": [
        {
          "internalType": "string",
          "name": "username",
          "type": "string"
        }
      ],
      "name": "getUserSignInfo",
      "outputs": [
        {
          "internalType": "string",
          "name": "",
          "type": "string"
        },
        {
          "internalType": "string",
          "name": "",
          "type": "string"
        },
        {
          "internalType": "string",
          "name": "",
          "type": "string"
        }
      ],
      "stateMutability": "view",
      "type": "function"
    },
    {
      "inputs": [],
      "name": "owner",
      "outputs": [
        {
          "internalType": "address",
          "name": "",
          "type": "address"
        }
      ],
      "stateMutability": "view",
      "type": "function"
    },
    {
      "inputs": [],
      "name": "renounceOwnership",
      "outputs": [],
      "stateMutability": "nonpayable",
      "type": "function"
    },
    {
      "inputs": [
        {
          "internalType": "string",
          "name": "username",
          "type": "string"
        },
        {
          "internalType": "string",
          "name": "email",
          "type": "string"
        },
        {
          "internalType": "string",
          "name": "signDate",
          "type": "string"
        }
      ],
      "name": "signTC",
      "outputs": [],
      "stateMutability": "nonpayable",
      "type": "function"
    },
    {
      "inputs": [
        {
          "internalType": "address",
          "name": "newOwner",
          "type": "address"
        }
      ],
      "name": "transferOwnership",
      "outputs": [],
      "stateMutability": "nonpayable",
      "type": "function"
    }
  ],
  "bytecode": "0x60806040523480156200001157600080fd5b506040516200139d3803806200139d8339818101604052810190620000379190620001f4565b80600073ffffffffffffffffffffffffffffffffffffffff168173ffffffffffffffffffffffffffffffffffffffff1603620000ad5760006040517f1e4fbdf7000000000000000000000000000000000000000000000000000000008152600401620000a4919062000237565b60405180910390fd5b620000be81620000c660201b60201c565b505062000254565b60008060009054906101000a900473ffffffffffffffffffffffffffffffffffffffff169050816000806101000a81548173ffffffffffffffffffffffffffffffffffffffff021916908373ffffffffffffffffffffffffffffffffffffffff1602179055508173ffffffffffffffffffffffffffffffffffffffff168173ffffffffffffffffffffffffffffffffffffffff167f8be0079c531659141344cd1fd0a4f28419497f9722a3daafe3b4186f6b6457e060405160405180910390a35050565b600080fd5b600073ffffffffffffffffffffffffffffffffffffffff82169050919050565b6000620001bc826200018f565b9050919050565b620001ce81620001af565b8114620001da57600080fd5b50565b600081519050620001ee81620001c3565b92915050565b6000602082840312156200020d576200020c6200018a565b5b60006200021d84828501620001dd565b91505092915050565b6200023181620001af565b82525050565b60006020820190506200024e600083018462000226565b92915050565b61113980620002646000396000f3fe608060405234801561001057600080fd5b50600436106100575760003560e01c80632a82e4341461005c578063715018a61461008e5780638da5cb5b14610098578063bcf3937a146100b6578063f2fde38b146100d2575b600080fd5b61007660048036038101906100719190610905565b6100ee565b604051610085939291906109cd565b60405180910390f35b61009661037f565b005b6100a0610393565b6040516100ad9190610a5a565b60405180910390f35b6100d060048036038101906100cb9190610a75565b6103bc565b005b6100ec60048036038101906100e79190610b48565b6105d2565b005b60608060606000845111610137576040517f08c379a000000000000000000000000000000000000000000000000000000000815260040161012e90610bc1565b60405180910390fd5b60006001856040516101499190610c1d565b908152602001604051809103902060405180606001604052908160008201805461017290610c63565b80601f016020809104026020016040519081016040528092919081815260200182805461019e90610c63565b80156101eb5780601f106101c0576101008083540402835291602001916101eb565b820191906000526020600020905b8154815290600101906020018083116101ce57829003601f168201915b5050505050815260200160018201805461020490610c63565b80601f016020809104026020016040519081016040528092919081815260200182805461023090610c63565b801561027d5780601f106102525761010080835404028352916020019161027d565b820191906000526020600020905b81548152906001019060200180831161026057829003601f168201915b5050505050815260200160028201805461029690610c63565b80601f01602080910402602001604051908101604052809291908181526020018280546102c290610c63565b801561030f5780601f106102e45761010080835404028352916020019161030f565b820191906000526020600020905b8154815290600101906020018083116102f257829003601f168201915b5050505050815250509050600081600001515111610362576040517f08c379a000000000000000000000000000000000000000000000000000000000815260040161035990610ce0565b60405180910390fd5b806000015181602001518260400151935093509350509193909250565b610387610658565b61039160006106df565b565b60008060009054906101000a900473ffffffffffffffffffffffffffffffffffffffff16905090565b6103c4610658565b6000835111610408576040517f08c379a00000000000000000000000000000000000000000000000000000000081526004016103ff90610bc1565b60405180910390fd5b600082511161044c576040517f08c379a000000000000000000000000000000000000000000000000000000000815260040161044390610d4c565b60405180910390fd5b6000815111610490576040517f08c379a000000000000000000000000000000000000000000000000000000000815260040161048790610db8565b60405180910390fd5b60006001846040516104a29190610c1d565b908152602001604051809103902060000180546104be90610c63565b905014610500576040517f08c379a00000000000000000000000000000000000000000000000000000000081526004016104f790610e24565b60405180910390fd5b60405180606001604052808481526020018381526020018281525060018460405161052b9190610c1d565b9081526020016040518091039020600082015181600001908161054e9190610ffa565b5060208201518160010190816105649190610ffa565b50604082015181600201908161057a9190610ffa565b509050508260405161058c9190610c1d565b60405180910390207f4a38db6b1a55afa2f870fc1114af5056931c39dbc78b4b36f7b48d75346ddda283836040516105c59291906110cc565b60405180910390a2505050565b6105da610658565b600073ffffffffffffffffffffffffffffffffffffffff168173ffffffffffffffffffffffffffffffffffffffff160361064c5760006040517f1e4fbdf70000000000000000000000000000000000000000000000000000000081526004016106439190610a5a565b60405180910390fd5b610655816106df565b50565b6106606107a3565b73ffffffffffffffffffffffffffffffffffffffff1661067e610393565b73ffffffffffffffffffffffffffffffffffffffff16146106dd576106a16107a3565b6040517f118cdaa70000000000000000000000000000000000000000000000000000000081526004016106d49190610a5a565b60405180910390fd5b565b60008060009054906101000a900473ffffffffffffffffffffffffffffffffffffffff169050816000806101000a81548173ffffffffffffffffffffffffffffffffffffffff021916908373ffffffffffffffffffffffffffffffffffffffff1602179055508173ffffffffffffffffffffffffffffffffffffffff168173ffffffffffffffffffffffffffffffffffffffff167f8be0079c531659141344cd1fd0a4f28419497f9722a3daafe3b4186f6b6457e060405160405180910390a35050565b600033905090565b6000604051905090565b600080fd5b600080fd5b600080fd5b600080fd5b6000601f19601f8301169050919050565b7f4e487b7100000000000000000000000000000000000000000000000000000000600052604160045260246000fd5b610812826107c9565b810181811067ffffffffffffffff82111715610831576108306107da565b5b80604052505050565b60006108446107ab565b90506108508282610809565b919050565b600067ffffffffffffffff8211156108705761086f6107da565b5b610879826107c9565b9050602081019050919050565b82818337600083830152505050565b60006108a86108a384610855565b61083a565b9050828152602081018484840111156108c4576108c36107c4565b5b6108cf848285610886565b509392505050565b600082601f8301126108ec576108eb6107bf565b5b81356108fc848260208601610895565b91505092915050565b60006020828403121561091b5761091a6107b5565b5b600082013567ffffffffffffffff811115610939576109386107ba565b5b610945848285016108d7565b91505092915050565b600081519050919050565b600082825260208201905092915050565b60005b8381101561098857808201518184015260208101905061096d565b60008484015250505050565b600061099f8261094e565b6109a98185610959565b93506109b981856020860161096a565b6109c2816107c9565b840191505092915050565b600060608201905081810360008301526109e78186610994565b905081810360208301526109fb8185610994565b90508181036040830152610a0f8184610994565b9050949350505050565b600073ffffffffffffffffffffffffffffffffffffffff82169050919050565b6000610a4482610a19565b9050919050565b610a5481610a39565b82525050565b6000602082019050610a6f6000830184610a4b565b92915050565b600080600060608486031215610a8e57610a8d6107b5565b5b600084013567ffffffffffffffff811115610aac57610aab6107ba565b5b610ab8868287016108d7565b935050602084013567ffffffffffffffff811115610ad957610ad86107ba565b5b610ae5868287016108d7565b925050604084013567ffffffffffffffff811115610b0657610b056107ba565b5b610b12868287016108d7565b9150509250925092565b610b2581610a39565b8114610b3057600080fd5b50565b600081359050610b4281610b1c565b92915050565b600060208284031215610b5e57610b5d6107b5565b5b6000610b6c84828501610b33565b91505092915050565b7f557365726e616d652063616e6e6f7420626520656d7074790000000000000000600082015250565b6000610bab601883610959565b9150610bb682610b75565b602082019050919050565b60006020820190508181036000830152610bda81610b9e565b9050919050565b600081905092915050565b6000610bf78261094e565b610c018185610be1565b9350610c1181856020860161096a565b80840191505092915050565b6000610c298284610bec565b915081905092915050565b7f4e487b7100000000000000000000000000000000000000000000000000000000600052602260045260246000fd5b60006002820490506001821680610c7b57607f821691505b602082108103610c8e57610c8d610c34565b5b50919050565b7f55736572206e6f7420666f756e64000000000000000000000000000000000000600082015250565b6000610cca600e83610959565b9150610cd582610c94565b602082019050919050565b60006020820190508181036000830152610cf981610cbd565b9050919050565b7f456d61696c2063616e6e6f7420626520656d7074790000000000000000000000600082015250565b6000610d36601583610959565b9150610d4182610d00565b602082019050919050565b60006020820190508181036000830152610d6581610d29565b9050919050565b7f5369676e20446174652063616e6e6f7420626520656d70747900000000000000600082015250565b6000610da2601983610959565b9150610dad82610d6c565b602082019050919050565b60006020820190508181036000830152610dd181610d95565b9050919050565b7f5573657220616c7265616479207369676e656420542643000000000000000000600082015250565b6000610e0e601783610959565b9150610e1982610dd8565b602082019050919050565b60006020820190508181036000830152610e3d81610e01565b9050919050565b60008190508160005260206000209050919050565b60006020601f8301049050919050565b600082821b905092915050565b600060088302610ea67fffffffffffffffffffffffffffffffffffffffffffffffffffffffffffffffff82610e69565b610eb08683610e69565b95508019841693508086168417925050509392505050565b6000819050919050565b6000819050919050565b6000610ef7610ef2610eed84610ec8565b610ed2565b610ec8565b9050919050565b6000819050919050565b610f1183610edc565b610f25610f1d82610efe565b848454610e76565b825550505050565b600090565b610f3a610f2d565b610f45818484610f08565b505050565b5b81811015610f6957610f5e600082610f32565b600181019050610f4b565b5050565b601f821115610fae57610f7f81610e44565b610f8884610e59565b81016020851015610f97578190505b610fab610fa385610e59565b830182610f4a565b50505b505050565b600082821c905092915050565b6000610fd160001984600802610fb3565b1980831691505092915050565b6000610fea8383610fc0565b9150826002028217905092915050565b6110038261094e565b67ffffffffffffffff81111561101c5761101b6107da565b5b6110268254610c63565b611031828285610f6d565b600060209050601f8311600181146110645760008415611052578287015190505b61105c8582610fde565b8655506110c4565b601f19841661107286610e44565b60005b8281101561109a57848901518255600182019150602085019450602081019050611075565b868310156110b757848901516110b3601f891682610fc0565b8355505b6001600288020188555050505b505050505050565b600060408201905081810360008301526110e68185610994565b905081810360208301526110fa8184610994565b9050939250505056fea264697066735822122006d9b4562c69b8920b884d2bca9fa70472fe0fecc6038aeded27f0f70427840464736f6c63430008180033",
  "linkReferences": {},
  "deployedLinkReferences": {}
}