{
  "contracts/CosmosTypes.sol": {
    "CosmosTypes": {
      "abi": [
        {
          "inputs": [
            {
              "components": [
                {
                  "internalType": "string",
                  "name": "typeURL",
                  "type": "string"
                },
                {
                  "internalType": "bytes",
                  "name": "value",
                  "type": "bytes"
                }
              ],
              "internalType": "struct Cosmos.CodecAny",
              "name": "",
              "type": "tuple"
            }
          ],
          "name": "codecAny",
          "outputs": [],
          "stateMutability": "pure",
          "type": "function"
        },
        {
          "inputs": [
            {
              "components": [
                {
                  "internalType": "uint256",
                  "name": "amount",
                  "type": "uint256"
                },
                {
                  "internalType": "string",
                  "name": "denom",
                  "type": "string"
                }
              ],
              "internalType": "struct Cosmos.Coin",
              "name": "",
              "type": "tuple"
            }
          ],
          "name": "coin",
          "outputs": [],
          "stateMutability": "pure",
          "type": "function"
        },
        {
          "inputs": [
            {
              "components": [
                {
                  "internalType": "string",
                  "name": "key",
                  "type": "string"
                },
                {
                  "internalType": "uint64",
                  "name": "offset",
                  "type": "uint64"
                },
                {
                  "internalType": "uint64",
                  "name": "limit",
                  "type": "uint64"
                },
                {
                  "internalType": "bool",
                  "name": "countTotal",
                  "type": "bool"
                },
                {
                  "internalType": "bool",
                  "name": "reverse",
                  "type": "bool"
                }
              ],
              "internalType": "struct Cosmos.PageRequest",
              "name": "",
              "type": "tuple"
            }
          ],
          "name": "pageRequest",
          "outputs": [],
          "stateMutability": "pure",
          "type": "function"
        },
        {
          "inputs": [
            {
              "components": [
                {
                  "internalType": "string",
                  "name": "nextKey",
                  "type": "string"
                },
                {
                  "internalType": "uint64",
                  "name": "total",
                  "type": "uint64"
                }
              ],
              "internalType": "struct Cosmos.PageResponse",
              "name": "",
              "type": "tuple"
            }
          ],
          "name": "pageResponse",
          "outputs": [],
          "stateMutability": "pure",
          "type": "function"
        }
      ],
      "evm": {
        "bytecode": {
          "linkReferences": {},
          "object": "608060405234801561001057600080fd5b506102b2806100206000396000f3fe608060405234801561001057600080fd5b506004361061004c5760003560e01c80631713cb13146100515780631acc976f1461006d5780632ff6e5df14610089578063426ce1a9146100a5575b600080fd5b61006b600480360381019061006691906100fb565b6100c1565b005b61008760048036038101906100829190610163565b6100c4565b005b6100a3600480360381019061009e91906101cb565b6100c7565b005b6100bf60048036038101906100ba9190610233565b6100ca565b005b50565b50565b50565b50565b600080fd5b600080fd5b600080fd5b6000604082840312156100f2576100f16100d7565b5b81905092915050565b600060208284031215610111576101106100cd565b5b600082013567ffffffffffffffff81111561012f5761012e6100d2565b5b61013b848285016100dc565b91505092915050565b600060a0828403121561015a576101596100d7565b5b81905092915050565b600060208284031215610179576101786100cd565b5b600082013567ffffffffffffffff811115610197576101966100d2565b5b6101a384828501610144565b91505092915050565b6000604082840312156101c2576101c16100d7565b5b81905092915050565b6000602082840312156101e1576101e06100cd565b5b600082013567ffffffffffffffff8111156101ff576101fe6100d2565b5b61020b848285016101ac565b91505092915050565b60006040828403121561022a576102296100d7565b5b81905092915050565b600060208284031215610249576102486100cd565b5b600082013567ffffffffffffffff811115610267576102666100d2565b5b61027384828501610214565b9150509291505056fea2646970667358221220d6df661049862fd27c9130a02ac5d7c397c16587333ed10db3b2533c238b385f64736f6c63430008180033",
          "opcodes": "PUSH1 0x80 PUSH1 0x40 MSTORE CALLVALUE DUP1 ISZERO PUSH2 0x10 JUMPI PUSH1 0x0 DUP1 REVERT JUMPDEST POP PUSH2 0x2B2 DUP1 PUSH2 0x20 PUSH1 0x0 CODECOPY PUSH1 0x0 RETURN INVALID PUSH1 0x80 PUSH1 0x40 MSTORE CALLVALUE DUP1 ISZERO PUSH2 0x10 JUMPI PUSH1 0x0 DUP1 REVERT JUMPDEST POP PUSH1 0x4 CALLDATASIZE LT PUSH2 0x4C JUMPI PUSH1 0x0 CALLDATALOAD PUSH1 0xE0 SHR DUP1 PUSH4 0x1713CB13 EQ PUSH2 0x51 JUMPI DUP1 PUSH4 0x1ACC976F EQ PUSH2 0x6D JUMPI DUP1 PUSH4 0x2FF6E5DF EQ PUSH2 0x89 JUMPI DUP1 PUSH4 0x426CE1A9 EQ PUSH2 0xA5 JUMPI JUMPDEST PUSH1 0x0 DUP1 REVERT JUMPDEST PUSH2 0x6B PUSH1 0x4 DUP1 CALLDATASIZE SUB DUP2 ADD SWAP1 PUSH2 0x66 SWAP2 SWAP1 PUSH2 0xFB JUMP JUMPDEST PUSH2 0xC1 JUMP JUMPDEST STOP JUMPDEST PUSH2 0x87 PUSH1 0x4 DUP1 CALLDATASIZE SUB DUP2 ADD SWAP1 PUSH2 0x82 SWAP2 SWAP1 PUSH2 0x163 JUMP JUMPDEST PUSH2 0xC4 JUMP JUMPDEST STOP JUMPDEST PUSH2 0xA3 PUSH1 0x4 DUP1 CALLDATASIZE SUB DUP2 ADD SWAP1 PUSH2 0x9E SWAP2 SWAP1 PUSH2 0x1CB JUMP JUMPDEST PUSH2 0xC7 JUMP JUMPDEST STOP JUMPDEST PUSH2 0xBF PUSH1 0x4 DUP1 CALLDATASIZE SUB DUP2 ADD SWAP1 PUSH2 0xBA SWAP2 SWAP1 PUSH2 0x233 JUMP JUMPDEST PUSH2 0xCA JUMP JUMPDEST STOP JUMPDEST POP JUMP JUMPDEST POP JUMP JUMPDEST POP JUMP JUMPDEST POP JUMP JUMPDEST PUSH1 0x0 DUP1 REVERT JUMPDEST PUSH1 0x0 DUP1 REVERT JUMPDEST PUSH1 0x0 DUP1 REVERT JUMPDEST PUSH1 0x0 PUSH1 0x40 DUP3 DUP5 SUB SLT ISZERO PUSH2 0xF2 JUMPI PUSH2 0xF1 PUSH2 0xD7 JUMP JUMPDEST JUMPDEST DUP2 SWAP1 POP SWAP3 SWAP2 POP POP JUMP JUMPDEST PUSH1 0x0 PUSH1 0x20 DUP3 DUP5 SUB SLT ISZERO PUSH2 0x111 JUMPI PUSH2 0x110 PUSH2 0xCD JUMP JUMPDEST JUMPDEST PUSH1 0x0 DUP3 ADD CALLDATALOAD PUSH8 0xFFFFFFFFFFFFFFFF DUP2 GT ISZERO PUSH2 0x12F JUMPI PUSH2 0x12E PUSH2 0xD2 JUMP JUMPDEST JUMPDEST PUSH2 0x13B DUP5 DUP3 DUP6 ADD PUSH2 0xDC JUMP JUMPDEST SWAP2 POP POP SWAP3 SWAP2 POP POP JUMP JUMPDEST PUSH1 0x0 PUSH1 0xA0 DUP3 DUP5 SUB SLT ISZERO PUSH2 0x15A JUMPI PUSH2 0x159 PUSH2 0xD7 JUMP JUMPDEST JUMPDEST DUP2 SWAP1 POP SWAP3 SWAP2 POP POP JUMP JUMPDEST PUSH1 0x0 PUSH1 0x20 DUP3 DUP5 SUB SLT ISZERO PUSH2 0x179 JUMPI PUSH2 0x178 PUSH2 0xCD JUMP JUMPDEST JUMPDEST PUSH1 0x0 DUP3 ADD CALLDATALOAD PUSH8 0xFFFFFFFFFFFFFFFF DUP2 GT ISZERO PUSH2 0x197 JUMPI PUSH2 0x196 PUSH2 0xD2 JUMP JUMPDEST JUMPDEST PUSH2 0x1A3 DUP5 DUP3 DUP6 ADD PUSH2 0x144 JUMP JUMPDEST SWAP2 POP POP SWAP3 SWAP2 POP POP JUMP JUMPDEST PUSH1 0x0 PUSH1 0x40 DUP3 DUP5 SUB SLT ISZERO PUSH2 0x1C2 JUMPI PUSH2 0x1C1 PUSH2 0xD7 JUMP JUMPDEST JUMPDEST DUP2 SWAP1 POP SWAP3 SWAP2 POP POP JUMP JUMPDEST PUSH1 0x0 PUSH1 0x20 DUP3 DUP5 SUB SLT ISZERO PUSH2 0x1E1 JUMPI PUSH2 0x1E0 PUSH2 0xCD JUMP JUMPDEST JUMPDEST PUSH1 0x0 DUP3 ADD CALLDATALOAD PUSH8 0xFFFFFFFFFFFFFFFF DUP2 GT ISZERO PUSH2 0x1FF JUMPI PUSH2 0x1FE PUSH2 0xD2 JUMP JUMPDEST JUMPDEST PUSH2 0x20B DUP5 DUP3 DUP6 ADD PUSH2 0x1AC JUMP JUMPDEST SWAP2 POP POP SWAP3 SWAP2 POP POP JUMP JUMPDEST PUSH1 0x0 PUSH1 0x40 DUP3 DUP5 SUB SLT ISZERO PUSH2 0x22A JUMPI PUSH2 0x229 PUSH2 0xD7 JUMP JUMPDEST JUMPDEST DUP2 SWAP1 POP SWAP3 SWAP2 POP POP JUMP JUMPDEST PUSH1 0x0 PUSH1 0x20 DUP3 DUP5 SUB SLT ISZERO PUSH2 0x249 JUMPI PUSH2 0x248 PUSH2 0xCD JUMP JUMPDEST JUMPDEST PUSH1 0x0 DUP3 ADD CALLDATALOAD PUSH8 0xFFFFFFFFFFFFFFFF DUP2 GT ISZERO PUSH2 0x267 JUMPI PUSH2 0x266 PUSH2 0xD2 JUMP JUMPDEST JUMPDEST PUSH2 0x273 DUP5 DUP3 DUP6 ADD PUSH2 0x214 JUMP JUMPDEST SWAP2 POP POP SWAP3 SWAP2 POP POP JUMP INVALID LOG2 PUSH5 0x6970667358 0x22 SLT KECCAK256 0xD6 0xDF PUSH7 0x1049862FD27C91 ADDRESS LOG0 0x2A 0xC5 0xD7 0xC3 SWAP8 0xC1 PUSH6 0x87333ED10DB3 0xB2 MSTORE8 EXTCODECOPY 0x23 DUP12 CODESIZE PUSH0 PUSH5 0x736F6C6343 STOP ADDMOD XOR STOP CALLER "
        },
        "methodIdentifiers": {
          "codecAny((string,bytes))": "1713cb13",
          "coin((uint256,string))": "2ff6e5df",
          "pageRequest((string,uint64,uint64,bool,bool))": "1acc976f",
          "pageResponse((string,uint64))": "426ce1a9"
        }
      }
    }
  }
}