{
  "_format": "hh-sol-artifact-1",
  "contractName": "PreSigningData",
  "sourceName": "contracts/Airdrop.sol",
  "abi": [
    {
      "anonymous": false,
      "inputs": [
        {
          "indexed": true,
          "internalType": "address",
          "name": "user",
          "type": "address"
        },
        {
          "indexed": false,
          "internalType": "bool",
          "name": "agreeTnC",
          "type": "bool"
        },
        {
          "indexed": false,
          "internalType": "string",
          "name": "shipName",
          "type": "string"
        },
        {
          "indexed": false,
          "internalType": "address",
          "name": "walletAddress",
          "type": "address"
        },
        {
          "indexed": false,
          "internalType": "string",
          "name": "referralCode",
          "type": "string"
        }
      ],
      "name": "UserRegistered",
      "type": "event"
    },
    {
      "inputs": [
        {
          "internalType": "string",
          "name": "_referralCode",
          "type": "string"
        }
      ],
      "name": "getReferredAccounts",
      "outputs": [
        {
          "internalType": "address[]",
          "name": "",
          "type": "address[]"
        }
      ],
      "stateMutability": "view",
      "type": "function"
    },
    {
      "inputs": [
        {
          "internalType": "address",
          "name": "_user",
          "type": "address"
        }
      ],
      "name": "getUserData",
      "outputs": [
        {
          "internalType": "bool",
          "name": "",
          "type": "bool"
        },
        {
          "internalType": "string",
          "name": "",
          "type": "string"
        },
        {
          "internalType": "address",
          "name": "",
          "type": "address"
        },
        {
          "internalType": "string",
          "name": "",
          "type": "string"
        },
        {
          "internalType": "bool",
          "name": "",
          "type": "bool"
        }
      ],
      "stateMutability": "view",
      "type": "function"
    },
    {
      "inputs": [
        {
          "internalType": "string",
          "name": "_shipName",
          "type": "string"
        }
      ],
      "name": "isShipNameTaken",
      "outputs": [
        {
          "internalType": "bool",
          "name": "",
          "type": "bool"
        }
      ],
      "stateMutability": "view",
      "type": "function"
    },
    {
      "inputs": [
        {
          "internalType": "string",
          "name": "referralCode",
          "type": "string"
        }
      ],
      "name": "redeemReward",
      "outputs": [],
      "stateMutability": "nonpayable",
      "type": "function"
    },
    {
      "inputs": [
        {
          "internalType": "bool",
          "name": "_agreeTnC",
          "type": "bool"
        },
        {
          "internalType": "string",
          "name": "_shipName",
          "type": "string"
        },
        {
          "internalType": "address",
          "name": "_address",
          "type": "address"
        },
        {
          "internalType": "string",
          "name": "_referralCode",
          "type": "string"
        },
        {
          "internalType": "string",
          "name": "_externalReferralCode",
          "type": "string"
        }
      ],
      "name": "registerUser",
      "outputs": [],
      "stateMutability": "nonpayable",
      "type": "function"
    },
    {
      "stateMutability": "payable",
      "type": "receive"
    }
  ],
  "bytecode": "0x608060405234801561001057600080fd5b50611bc3806100206000396000f3fe60806040526004361061004e5760003560e01c80631b3daeea1461005a5780636a3e22ef14610083578063cc16ab3e146100c0578063ec810140146100e9578063ffc9896b1461012657610055565b3661005557005b600080fd5b34801561006657600080fd5b50610081600480360381019061007c9190611083565b610167565b005b34801561008f57600080fd5b506100aa60048036038101906100a59190611152565b61073d565b6040516100b791906111aa565b60405180910390f35b3480156100cc57600080fd5b506100e760048036038101906100e29190611152565b6107b4565b005b3480156100f557600080fd5b50610110600480360381019061010b9190611152565b610b22565b60405161011d9190611283565b60405180910390f35b34801561013257600080fd5b5061014d600480360381019061014891906112a5565b610bce565b60405161015e959493929190611360565b60405180910390f35b60008451116101ab576040517f08c379a00000000000000000000000000000000000000000000000000000000081526004016101a29061140d565b60405180910390fd5b600073ffffffffffffffffffffffffffffffffffffffff166000808573ffffffffffffffffffffffffffffffffffffffff1673ffffffffffffffffffffffffffffffffffffffff16815260200190815260200160002060020160009054906101000a900473ffffffffffffffffffffffffffffffffffffffff1673ffffffffffffffffffffffffffffffffffffffff161461027b576040517f08c379a00000000000000000000000000000000000000000000000000000000081526004016102729061149f565b60405180910390fd5b600073ffffffffffffffffffffffffffffffffffffffff166001836040516102a391906114fb565b908152602001604051809103902060009054906101000a900473ffffffffffffffffffffffffffffffffffffffff1673ffffffffffffffffffffffffffffffffffffffff1614610328576040517f08c379a000000000000000000000000000000000000000000000000000000000815260040161031f9061155e565b60405180910390fd5b600073ffffffffffffffffffffffffffffffffffffffff1660038560405161035091906114fb565b908152602001604051809103902060009054906101000a900473ffffffffffffffffffffffffffffffffffffffff1673ffffffffffffffffffffffffffffffffffffffff16146103d5576040517f08c379a00000000000000000000000000000000000000000000000000000000081526004016103cc906115ca565b60405180910390fd5b6040518060c0016040528086151581526020018581526020018473ffffffffffffffffffffffffffffffffffffffff168152602001838152602001600015158152602001828152506000808573ffffffffffffffffffffffffffffffffffffffff1673ffffffffffffffffffffffffffffffffffffffff16815260200190815260200160002060008201518160000160006101000a81548160ff02191690831515021790555060208201518160010190816104909190611800565b5060408201518160020160006101000a81548173ffffffffffffffffffffffffffffffffffffffff021916908373ffffffffffffffffffffffffffffffffffffffff16021790555060608201518160030190816104ed9190611800565b5060808201518160040160006101000a81548160ff02191690831515021790555060a08201518160050190816105239190611800565b509050508260018360405161053891906114fb565b908152602001604051809103902060006101000a81548173ffffffffffffffffffffffffffffffffffffffff021916908373ffffffffffffffffffffffffffffffffffffffff1602179055508260038560405161059591906114fb565b908152602001604051809103902060006101000a81548173ffffffffffffffffffffffffffffffffffffffff021916908373ffffffffffffffffffffffffffffffffffffffff1602179055506000815111801561065d5750600073ffffffffffffffffffffffffffffffffffffffff1660018260405161061591906114fb565b908152602001604051809103902060009054906101000a900473ffffffffffffffffffffffffffffffffffffffff1673ffffffffffffffffffffffffffffffffffffffff1614155b156106e25760028160405161067291906114fb565b9081526020016040518091039020839080600181540180825580915050600190039060005260206000200160009091909190916101000a81548173ffffffffffffffffffffffffffffffffffffffff021916908373ffffffffffffffffffffffffffffffffffffffff1602179055505b8273ffffffffffffffffffffffffffffffffffffffff167fa69bce11df02834825f3260c223a484eb86c288469469cce9c909d8662c39a258686868660405161072e94939291906118d2565b60405180910390a25050505050565b60008073ffffffffffffffffffffffffffffffffffffffff1660038360405161076691906114fb565b908152602001604051809103902060009054906101000a900473ffffffffffffffffffffffffffffffffffffffff1673ffffffffffffffffffffffffffffffffffffffff1614159050919050565b60006001826040516107c691906114fb565b908152602001604051809103902060009054906101000a900473ffffffffffffffffffffffffffffffffffffffff169050600073ffffffffffffffffffffffffffffffffffffffff168173ffffffffffffffffffffffffffffffffffffffff1603610866576040517f08c379a000000000000000000000000000000000000000000000000000000000815260040161085d90611971565b60405180910390fd5b60008060008373ffffffffffffffffffffffffffffffffffffffff1673ffffffffffffffffffffffffffffffffffffffff1681526020019081526020016000209050600015158160040160009054906101000a900460ff16151514610900576040517f08c379a00000000000000000000000000000000000000000000000000000000081526004016108f7906119dd565b60405180910390fd5b670de0b6b3a764000047101561094b576040517f08c379a000000000000000000000000000000000000000000000000000000000815260040161094290611a6f565b60405180910390fd5b60018160040160006101000a81548160ff021916908315150217905550806000808473ffffffffffffffffffffffffffffffffffffffff1673ffffffffffffffffffffffffffffffffffffffff1681526020019081526020016000206000820160009054906101000a900460ff168160000160006101000a81548160ff021916908315150217905550600182018160010190816109e89190611aa5565b506002820160009054906101000a900473ffffffffffffffffffffffffffffffffffffffff168160020160006101000a81548173ffffffffffffffffffffffffffffffffffffffff021916908373ffffffffffffffffffffffffffffffffffffffff16021790555060038201816003019081610a649190611aa5565b506004820160009054906101000a900460ff168160040160006101000a81548160ff02191690831515021790555060058201816005019081610aa69190611aa5565b509050508060020160009054906101000a900473ffffffffffffffffffffffffffffffffffffffff1673ffffffffffffffffffffffffffffffffffffffff166108fc670de0b6b3a76400009081150290604051600060405180830381858888f19350505050158015610b1c573d6000803e3d6000fd5b50505050565b6060600282604051610b3491906114fb565b9081526020016040518091039020805480602002602001604051908101604052809291908181526020018280548015610bc257602002820191906000526020600020905b8160009054906101000a900473ffffffffffffffffffffffffffffffffffffffff1673ffffffffffffffffffffffffffffffffffffffff1681526020019060010190808311610b78575b50505050509050919050565b60006060600060606000806000808873ffffffffffffffffffffffffffffffffffffffff1673ffffffffffffffffffffffffffffffffffffffff1681526020019081526020016000206040518060c00160405290816000820160009054906101000a900460ff16151515158152602001600182018054610c4d90611619565b80601f0160208091040260200160405190810160405280929190818152602001828054610c7990611619565b8015610cc65780601f10610c9b57610100808354040283529160200191610cc6565b820191906000526020600020905b815481529060010190602001808311610ca957829003601f168201915b505050505081526020016002820160009054906101000a900473ffffffffffffffffffffffffffffffffffffffff1673ffffffffffffffffffffffffffffffffffffffff1673ffffffffffffffffffffffffffffffffffffffff168152602001600382018054610d3590611619565b80601f0160208091040260200160405190810160405280929190818152602001828054610d6190611619565b8015610dae5780601f10610d8357610100808354040283529160200191610dae565b820191906000526020600020905b815481529060010190602001808311610d9157829003601f168201915b505050505081526020016004820160009054906101000a900460ff16151515158152602001600582018054610de290611619565b80601f0160208091040260200160405190810160405280929190818152602001828054610e0e90611619565b8015610e5b5780601f10610e3057610100808354040283529160200191610e5b565b820191906000526020600020905b815481529060010190602001808311610e3e57829003601f168201915b505050505081525050905080600001518160200151826040015183606001518460800151955095509550955095505091939590929450565b6000604051905090565b600080fd5b600080fd5b60008115159050919050565b610ebc81610ea7565b8114610ec757600080fd5b50565b600081359050610ed981610eb3565b92915050565b600080fd5b600080fd5b6000601f19601f8301169050919050565b7f4e487b7100000000000000000000000000000000000000000000000000000000600052604160045260246000fd5b610f3282610ee9565b810181811067ffffffffffffffff82111715610f5157610f50610efa565b5b80604052505050565b6000610f64610e93565b9050610f708282610f29565b919050565b600067ffffffffffffffff821115610f9057610f8f610efa565b5b610f9982610ee9565b9050602081019050919050565b82818337600083830152505050565b6000610fc8610fc384610f75565b610f5a565b905082815260208101848484011115610fe457610fe3610ee4565b5b610fef848285610fa6565b509392505050565b600082601f83011261100c5761100b610edf565b5b813561101c848260208601610fb5565b91505092915050565b600073ffffffffffffffffffffffffffffffffffffffff82169050919050565b600061105082611025565b9050919050565b61106081611045565b811461106b57600080fd5b50565b60008135905061107d81611057565b92915050565b600080600080600060a0868803121561109f5761109e610e9d565b5b60006110ad88828901610eca565b955050602086013567ffffffffffffffff8111156110ce576110cd610ea2565b5b6110da88828901610ff7565b94505060406110eb8882890161106e565b935050606086013567ffffffffffffffff81111561110c5761110b610ea2565b5b61111888828901610ff7565b925050608086013567ffffffffffffffff81111561113957611138610ea2565b5b61114588828901610ff7565b9150509295509295909350565b60006020828403121561116857611167610e9d565b5b600082013567ffffffffffffffff81111561118657611185610ea2565b5b61119284828501610ff7565b91505092915050565b6111a481610ea7565b82525050565b60006020820190506111bf600083018461119b565b92915050565b600081519050919050565b600082825260208201905092915050565b6000819050602082019050919050565b6111fa81611045565b82525050565b600061120c83836111f1565b60208301905092915050565b6000602082019050919050565b6000611230826111c5565b61123a81856111d0565b9350611245836111e1565b8060005b8381101561127657815161125d8882611200565b975061126883611218565b925050600181019050611249565b5085935050505092915050565b6000602082019050818103600083015261129d8184611225565b905092915050565b6000602082840312156112bb576112ba610e9d565b5b60006112c98482850161106e565b91505092915050565b600081519050919050565b600082825260208201905092915050565b60005b8381101561130c5780820151818401526020810190506112f1565b60008484015250505050565b6000611323826112d2565b61132d81856112dd565b935061133d8185602086016112ee565b61134681610ee9565b840191505092915050565b61135a81611045565b82525050565b600060a082019050611375600083018861119b565b81810360208301526113878187611318565b90506113966040830186611351565b81810360608301526113a88185611318565b90506113b7608083018461119b565b9695505050505050565b7f53686970206e616d652063616e6e6f7420626520656d7074792e000000000000600082015250565b60006113f7601a836112dd565b9150611402826113c1565b602082019050919050565b60006020820190508181036000830152611426816113ea565b9050919050565b7f546869732077616c6c657420697320616c72656164792072656769737465726560008201527f642e000000000000000000000000000000000000000000000000000000000000602082015250565b60006114896022836112dd565b91506114948261142d565b604082019050919050565b600060208201905081810360008301526114b88161147c565b9050919050565b600081905092915050565b60006114d5826112d2565b6114df81856114bf565b93506114ef8185602086016112ee565b80840191505092915050565b600061150782846114ca565b915081905092915050565b7f526566657272616c20636f646520616c726561647920696e207573652e000000600082015250565b6000611548601d836112dd565b915061155382611512565b602082019050919050565b600060208201905081810360008301526115778161153b565b9050919050565b7f546869732073686970206e616d6520697320616c72656164792074616b656e00600082015250565b60006115b4601f836112dd565b91506115bf8261157e565b602082019050919050565b600060208201905081810360008301526115e3816115a7565b9050919050565b7f4e487b7100000000000000000000000000000000000000000000000000000000600052602260045260246000fd5b6000600282049050600182168061163157607f821691505b602082108103611644576116436115ea565b5b50919050565b60008190508160005260206000209050919050565b60006020601f8301049050919050565b600082821b905092915050565b6000600883026116ac7fffffffffffffffffffffffffffffffffffffffffffffffffffffffffffffffff8261166f565b6116b6868361166f565b95508019841693508086168417925050509392505050565b6000819050919050565b6000819050919050565b60006116fd6116f86116f3846116ce565b6116d8565b6116ce565b9050919050565b6000819050919050565b611717836116e2565b61172b61172382611704565b84845461167c565b825550505050565b600090565b611740611733565b61174b81848461170e565b505050565b5b8181101561176f57611764600082611738565b600181019050611751565b5050565b601f8211156117b4576117858161164a565b61178e8461165f565b8101602085101561179d578190505b6117b16117a98561165f565b830182611750565b50505b505050565b600082821c905092915050565b60006117d7600019846008026117b9565b1980831691505092915050565b60006117f083836117c6565b9150826002028217905092915050565b611809826112d2565b67ffffffffffffffff81111561182257611821610efa565b5b61182c8254611619565b611837828285611773565b600060209050601f83116001811461186a5760008415611858578287015190505b61186285826117e4565b8655506118ca565b601f1984166118788661164a565b60005b828110156118a05784890151825560018201915060208501945060208101905061187b565b868310156118bd57848901516118b9601f8916826117c6565b8355505b6001600288020188555050505b505050505050565b60006080820190506118e7600083018761119b565b81810360208301526118f98186611318565b90506119086040830185611351565b818103606083015261191a8184611318565b905095945050505050565b7f526566657272616c20436f646520646f6573206e6f7420657869737400000000600082015250565b600061195b601c836112dd565b915061196682611925565b602082019050919050565b6000602082019050818103600083015261198a8161194e565b9050919050565b7f5573657220616c726561647920726564656d7074656420726577617264000000600082015250565b60006119c7601d836112dd565b91506119d282611991565b602082019050919050565b600060208201905081810360008301526119f6816119ba565b9050919050565b7f54686520636f6e747261637420646f65736e2774206861766520656e6f75676860008201527f742062616c616e636520666f722072656465656d000000000000000000000000602082015250565b6000611a596034836112dd565b9150611a64826119fd565b604082019050919050565b60006020820190508181036000830152611a8881611a4c565b9050919050565b600081549050611a9e81611619565b9050919050565b818103611ab3575050611b8b565b611abc82611a8f565b67ffffffffffffffff811115611ad557611ad4610efa565b5b611adf8254611619565b611aea828285611773565b6000601f831160018114611b195760008415611b07578287015490505b611b1185826117e4565b865550611b84565b601f198416611b278761164a565b9650611b328661164a565b60005b82811015611b5a57848901548255600182019150600185019450602081019050611b35565b86831015611b775784890154611b73601f8916826117c6565b8355505b6001600288020188555050505b5050505050505b56fea2646970667358221220ce7fecbd773054674d6fb3db59571ae2c63614903a864517f0aabda2c1e90ebd64736f6c63430008180033",
  "linkReferences": {},
  "deployedLinkReferences": {}
}