{
  "_format": "hh-sol-artifact-1",
  "contractName": "AirdropNFT",
  "sourceName": "contracts/AirdropNFT.sol",
  "abi": [
    {
      "inputs": [],
      "stateMutability": "nonpayable",
      "type": "constructor"
    },
    {
      "inputs": [
        {
          "internalType": "address",
          "name": "sender",
          "type": "address"
        },
        {
          "internalType": "uint256",
          "name": "tokenId",
          "type": "uint256"
        },
        {
          "internalType": "address",
          "name": "owner",
          "type": "address"
        }
      ],
      "name": "ERC721IncorrectOwner",
      "type": "error"
    },
    {
      "inputs": [
        {
          "internalType": "address",
          "name": "operator",
          "type": "address"
        },
        {
          "internalType": "uint256",
          "name": "tokenId",
          "type": "uint256"
        }
      ],
      "name": "ERC721InsufficientApproval",
      "type": "error"
    },
    {
      "inputs": [
        {
          "internalType": "address",
          "name": "approver",
          "type": "address"
        }
      ],
      "name": "ERC721InvalidApprover",
      "type": "error"
    },
    {
      "inputs": [
        {
          "internalType": "address",
          "name": "operator",
          "type": "address"
        }
      ],
      "name": "ERC721InvalidOperator",
      "type": "error"
    },
    {
      "inputs": [
        {
          "internalType": "address",
          "name": "owner",
          "type": "address"
        }
      ],
      "name": "ERC721InvalidOwner",
      "type": "error"
    },
    {
      "inputs": [
        {
          "internalType": "address",
          "name": "receiver",
          "type": "address"
        }
      ],
      "name": "ERC721InvalidReceiver",
      "type": "error"
    },
    {
      "inputs": [
        {
          "internalType": "address",
          "name": "sender",
          "type": "address"
        }
      ],
      "name": "ERC721InvalidSender",
      "type": "error"
    },
    {
      "inputs": [
        {
          "internalType": "uint256",
          "name": "tokenId",
          "type": "uint256"
        }
      ],
      "name": "ERC721NonexistentToken",
      "type": "error"
    },
    {
      "anonymous": false,
      "inputs": [
        {
          "indexed": true,
          "internalType": "address",
          "name": "owner",
          "type": "address"
        },
        {
          "indexed": true,
          "internalType": "address",
          "name": "approved",
          "type": "address"
        },
        {
          "indexed": true,
          "internalType": "uint256",
          "name": "tokenId",
          "type": "uint256"
        }
      ],
      "name": "Approval",
      "type": "event"
    },
    {
      "anonymous": false,
      "inputs": [
        {
          "indexed": true,
          "internalType": "address",
          "name": "owner",
          "type": "address"
        },
        {
          "indexed": true,
          "internalType": "address",
          "name": "operator",
          "type": "address"
        },
        {
          "indexed": false,
          "internalType": "bool",
          "name": "approved",
          "type": "bool"
        }
      ],
      "name": "ApprovalForAll",
      "type": "event"
    },
    {
      "anonymous": false,
      "inputs": [
        {
          "indexed": false,
          "internalType": "uint256",
          "name": "_fromTokenId",
          "type": "uint256"
        },
        {
          "indexed": false,
          "internalType": "uint256",
          "name": "_toTokenId",
          "type": "uint256"
        }
      ],
      "name": "BatchMetadataUpdate",
      "type": "event"
    },
    {
      "anonymous": false,
      "inputs": [
        {
          "indexed": false,
          "internalType": "uint256",
          "name": "_tokenId",
          "type": "uint256"
        }
      ],
      "name": "MetadataUpdate",
      "type": "event"
    },
    {
      "anonymous": false,
      "inputs": [
        {
          "indexed": false,
          "internalType": "address",
          "name": "buyer",
          "type": "address"
        },
        {
          "indexed": false,
          "internalType": "uint256",
          "name": "tokenId",
          "type": "uint256"
        },
        {
          "indexed": false,
          "internalType": "uint256",
          "name": "price",
          "type": "uint256"
        }
      ],
      "name": "TokenPurchased",
      "type": "event"
    },
    {
      "anonymous": false,
      "inputs": [
        {
          "indexed": true,
          "internalType": "address",
          "name": "from",
          "type": "address"
        },
        {
          "indexed": true,
          "internalType": "address",
          "name": "to",
          "type": "address"
        },
        {
          "indexed": true,
          "internalType": "uint256",
          "name": "tokenId",
          "type": "uint256"
        }
      ],
      "name": "Transfer",
      "type": "event"
    },
    {
      "inputs": [
        {
          "internalType": "uint256",
          "name": "tokenId",
          "type": "uint256"
        }
      ],
      "name": "BuyToken",
      "outputs": [],
      "stateMutability": "payable",
      "type": "function"
    },
    {
      "inputs": [
        {
          "internalType": "string",
          "name": "tokenURI",
          "type": "string"
        },
        {
          "internalType": "uint256",
          "name": "price",
          "type": "uint256"
        }
      ],
      "name": "CreateToken",
      "outputs": [
        {
          "internalType": "uint256",
          "name": "",
          "type": "uint256"
        }
      ],
      "stateMutability": "payable",
      "type": "function"
    },
    {
      "inputs": [
        {
          "internalType": "uint256",
          "name": "tokenId",
          "type": "uint256"
        },
        {
          "internalType": "uint256",
          "name": "price",
          "type": "uint256"
        }
      ],
      "name": "SetTokenPrice",
      "outputs": [],
      "stateMutability": "nonpayable",
      "type": "function"
    },
    {
      "inputs": [
        {
          "internalType": "address",
          "name": "to",
          "type": "address"
        },
        {
          "internalType": "uint256",
          "name": "tokenId",
          "type": "uint256"
        }
      ],
      "name": "approve",
      "outputs": [],
      "stateMutability": "nonpayable",
      "type": "function"
    },
    {
      "inputs": [
        {
          "internalType": "address",
          "name": "owner",
          "type": "address"
        }
      ],
      "name": "balanceOf",
      "outputs": [
        {
          "internalType": "uint256",
          "name": "",
          "type": "uint256"
        }
      ],
      "stateMutability": "view",
      "type": "function"
    },
    {
      "inputs": [
        {
          "internalType": "uint256",
          "name": "tokenId",
          "type": "uint256"
        }
      ],
      "name": "getApproved",
      "outputs": [
        {
          "internalType": "address",
          "name": "",
          "type": "address"
        }
      ],
      "stateMutability": "view",
      "type": "function"
    },
    {
      "inputs": [
        {
          "internalType": "address",
          "name": "owner",
          "type": "address"
        },
        {
          "internalType": "address",
          "name": "operator",
          "type": "address"
        }
      ],
      "name": "isApprovedForAll",
      "outputs": [
        {
          "internalType": "bool",
          "name": "",
          "type": "bool"
        }
      ],
      "stateMutability": "view",
      "type": "function"
    },
    {
      "inputs": [],
      "name": "name",
      "outputs": [
        {
          "internalType": "string",
          "name": "",
          "type": "string"
        }
      ],
      "stateMutability": "view",
      "type": "function"
    },
    {
      "inputs": [
        {
          "internalType": "uint256",
          "name": "tokenId",
          "type": "uint256"
        }
      ],
      "name": "ownerOf",
      "outputs": [
        {
          "internalType": "address",
          "name": "",
          "type": "address"
        }
      ],
      "stateMutability": "view",
      "type": "function"
    },
    {
      "inputs": [
        {
          "internalType": "address",
          "name": "from",
          "type": "address"
        },
        {
          "internalType": "address",
          "name": "to",
          "type": "address"
        },
        {
          "internalType": "uint256",
          "name": "tokenId",
          "type": "uint256"
        }
      ],
      "name": "safeTransferFrom",
      "outputs": [],
      "stateMutability": "nonpayable",
      "type": "function"
    },
    {
      "inputs": [
        {
          "internalType": "address",
          "name": "from",
          "type": "address"
        },
        {
          "internalType": "address",
          "name": "to",
          "type": "address"
        },
        {
          "internalType": "uint256",
          "name": "tokenId",
          "type": "uint256"
        },
        {
          "internalType": "bytes",
          "name": "data",
          "type": "bytes"
        }
      ],
      "name": "safeTransferFrom",
      "outputs": [],
      "stateMutability": "nonpayable",
      "type": "function"
    },
    {
      "inputs": [
        {
          "internalType": "address",
          "name": "operator",
          "type": "address"
        },
        {
          "internalType": "bool",
          "name": "approved",
          "type": "bool"
        }
      ],
      "name": "setApprovalForAll",
      "outputs": [],
      "stateMutability": "nonpayable",
      "type": "function"
    },
    {
      "inputs": [
        {
          "internalType": "bytes4",
          "name": "interfaceId",
          "type": "bytes4"
        }
      ],
      "name": "supportsInterface",
      "outputs": [
        {
          "internalType": "bool",
          "name": "",
          "type": "bool"
        }
      ],
      "stateMutability": "view",
      "type": "function"
    },
    {
      "inputs": [],
      "name": "symbol",
      "outputs": [
        {
          "internalType": "string",
          "name": "",
          "type": "string"
        }
      ],
      "stateMutability": "view",
      "type": "function"
    },
    {
      "inputs": [
        {
          "internalType": "uint256",
          "name": "",
          "type": "uint256"
        }
      ],
      "name": "tokenPrices",
      "outputs": [
        {
          "internalType": "uint256",
          "name": "",
          "type": "uint256"
        }
      ],
      "stateMutability": "view",
      "type": "function"
    },
    {
      "inputs": [
        {
          "internalType": "uint256",
          "name": "tokenId",
          "type": "uint256"
        }
      ],
      "name": "tokenURI",
      "outputs": [
        {
          "internalType": "string",
          "name": "",
          "type": "string"
        }
      ],
      "stateMutability": "view",
      "type": "function"
    },
    {
      "inputs": [
        {
          "internalType": "address",
          "name": "from",
          "type": "address"
        },
        {
          "internalType": "address",
          "name": "to",
          "type": "address"
        },
        {
          "internalType": "uint256",
          "name": "tokenId",
          "type": "uint256"
        }
      ],
      "name": "transferFrom",
      "outputs": [],
      "stateMutability": "nonpayable",
      "type": "function"
    }
  ],
  "bytecode": "0x60806040523480156200001157600080fd5b506040518060400160405280600f81526020017f496e6b6969436f6c6c656374696f6e00000000000000000000000000000000008152506040518060400160405280600981526020017f496e6b69694e465473000000000000000000000000000000000000000000000081525081600090816200008f919062000324565b508060019081620000a1919062000324565b5050506200040b565b600081519050919050565b7f4e487b7100000000000000000000000000000000000000000000000000000000600052604160045260246000fd5b7f4e487b7100000000000000000000000000000000000000000000000000000000600052602260045260246000fd5b600060028204905060018216806200012c57607f821691505b602082108103620001425762000141620000e4565b5b50919050565b60008190508160005260206000209050919050565b60006020601f8301049050919050565b600082821b905092915050565b600060088302620001ac7fffffffffffffffffffffffffffffffffffffffffffffffffffffffffffffffff826200016d565b620001b886836200016d565b95508019841693508086168417925050509392505050565b6000819050919050565b6000819050919050565b600062000205620001ff620001f984620001d0565b620001da565b620001d0565b9050919050565b6000819050919050565b6200022183620001e4565b6200023962000230826200020c565b8484546200017a565b825550505050565b600090565b6200025062000241565b6200025d81848462000216565b505050565b5b8181101562000285576200027960008262000246565b60018101905062000263565b5050565b601f821115620002d4576200029e8162000148565b620002a9846200015d565b81016020851015620002b9578190505b620002d1620002c8856200015d565b83018262000262565b50505b505050565b600082821c905092915050565b6000620002f960001984600802620002d9565b1980831691505092915050565b6000620003148383620002e6565b9150826002028217905092915050565b6200032f82620000aa565b67ffffffffffffffff8111156200034b576200034a620000b5565b5b62000357825462000113565b6200036482828562000289565b600060209050601f8311600181146200039c576000841562000387578287015190505b62000393858262000306565b86555062000403565b601f198416620003ac8662000148565b60005b82811015620003d657848901518255600182019150602085019450602081019050620003af565b86831015620003f65784890151620003f2601f891682620002e6565b8355505b6001600288020188555050505b505050505050565b612c35806200041b6000396000f3fe6080604052600436106100fe5760003560e01c806370a0823111610095578063b88d4fde11610064578063b88d4fde1461034a578063c87b56dd14610373578063e5afe3e6146103b0578063e985e9c5146103ed578063fcb0368c1461042a576100fe565b806370a08231146102895780638284fe29146102c657806395d89b41146102f6578063a22cb46514610321576100fe565b806323b872dd116100d157806323b872dd146101d15780632f8c61aa146101fa57806342842e0e146102235780636352211e1461024c576100fe565b806301ffc9a71461010357806306fdde0314610140578063081812fc1461016b578063095ea7b3146101a8575b600080fd5b34801561010f57600080fd5b5061012a60048036038101906101259190611e0c565b610446565b6040516101379190611e54565b60405180910390f35b34801561014c57600080fd5b506101556104a7565b6040516101629190611eff565b60405180910390f35b34801561017757600080fd5b50610192600480360381019061018d9190611f57565b610539565b60405161019f9190611fc5565b60405180910390f35b3480156101b457600080fd5b506101cf60048036038101906101ca919061200c565b610555565b005b3480156101dd57600080fd5b506101f860048036038101906101f3919061204c565b61056b565b005b34801561020657600080fd5b50610221600480360381019061021c919061209f565b61066d565b005b34801561022f57600080fd5b5061024a6004803603810190610245919061204c565b61074d565b005b34801561025857600080fd5b50610273600480360381019061026e9190611f57565b61076d565b6040516102809190611fc5565b60405180910390f35b34801561029557600080fd5b506102b060048036038101906102ab91906120df565b61077f565b6040516102bd919061211b565b60405180910390f35b6102e060048036038101906102db919061226b565b610839565b6040516102ed919061211b565b60405180910390f35b34801561030257600080fd5b5061030b61087b565b6040516103189190611eff565b60405180910390f35b34801561032d57600080fd5b50610348600480360381019061034391906122f3565b61090d565b005b34801561035657600080fd5b50610371600480360381019061036c91906123d4565b610923565b005b34801561037f57600080fd5b5061039a60048036038101906103959190611f57565b610940565b6040516103a79190611eff565b60405180910390f35b3480156103bc57600080fd5b506103d760048036038101906103d29190611f57565b610a53565b6040516103e4919061211b565b60405180910390f35b3480156103f957600080fd5b50610414600480360381019061040f9190612457565b610a6b565b6040516104219190611e54565b60405180910390f35b610444600480360381019061043f9190611f57565b610aff565b005b6000634906490660e01b7bffffffffffffffffffffffffffffffffffffffffffffffffffffffff1916827bffffffffffffffffffffffffffffffffffffffffffffffffffffffff191614806104a0575061049f82610d0a565b5b9050919050565b6060600080546104b6906124c6565b80601f01602080910402602001604051908101604052809291908181526020018280546104e2906124c6565b801561052f5780601f106105045761010080835404028352916020019161052f565b820191906000526020600020905b81548152906001019060200180831161051257829003601f168201915b5050505050905090565b600061054482610dec565b5061054e82610e74565b9050919050565b6105678282610562610eb1565b610eb9565b5050565b600073ffffffffffffffffffffffffffffffffffffffff168273ffffffffffffffffffffffffffffffffffffffff16036105dd5760006040517f64a0ae920000000000000000000000000000000000000000000000000000000081526004016105d49190611fc5565b60405180910390fd5b60006105f183836105ec610eb1565b610ecb565b90508373ffffffffffffffffffffffffffffffffffffffff168173ffffffffffffffffffffffffffffffffffffffff1614610667578382826040517f64283d7b00000000000000000000000000000000000000000000000000000000815260040161065e939291906124f7565b60405180910390fd5b50505050565b610676826110e5565b6106b5576040517f08c379a00000000000000000000000000000000000000000000000000000000081526004016106ac9061257a565b60405180910390fd5b60006106c08361076d565b90508073ffffffffffffffffffffffffffffffffffffffff163373ffffffffffffffffffffffffffffffffffffffff1614610730576040517f08c379a0000000000000000000000000000000000000000000000000000000008152600401610727906125e6565b60405180910390fd5b816008600085815260200190815260200160002081905550505050565b61076883838360405180602001604052806000815250610923565b505050565b600061077882610dec565b9050919050565b60008073ffffffffffffffffffffffffffffffffffffffff168273ffffffffffffffffffffffffffffffffffffffff16036107f25760006040517f89c62b640000000000000000000000000000000000000000000000000000000081526004016107e99190611fc5565b60405180910390fd5b600360008373ffffffffffffffffffffffffffffffffffffffff1673ffffffffffffffffffffffffffffffffffffffff168152602001908152602001600020549050919050565b60008060076000815461084b90612635565b919050819055905061085d3382611126565b610867818561121f565b610871818461066d565b8091505092915050565b60606001805461088a906124c6565b80601f01602080910402602001604051908101604052809291908181526020018280546108b6906124c6565b80156109035780601f106108d857610100808354040283529160200191610903565b820191906000526020600020905b8154815290600101906020018083116108e657829003601f168201915b5050505050905090565b61091f610918610eb1565b838361127b565b5050565b61092e84848461056b565b61093a848484846113ea565b50505050565b606061094b82610dec565b50600060066000848152602001908152602001600020805461096c906124c6565b80601f0160208091040260200160405190810160405280929190818152602001828054610998906124c6565b80156109e55780601f106109ba576101008083540402835291602001916109e5565b820191906000526020600020905b8154815290600101906020018083116109c857829003601f168201915b5050505050905060006109f66115a1565b90506000815103610a0b578192505050610a4e565b600082511115610a40578082604051602001610a289291906126b9565b60405160208183030381529060405292505050610a4e565b610a49846115b8565b925050505b919050565b60086020528060005260406000206000915090505481565b6000600560008473ffffffffffffffffffffffffffffffffffffffff1673ffffffffffffffffffffffffffffffffffffffff16815260200190815260200160002060008373ffffffffffffffffffffffffffffffffffffffff1673ffffffffffffffffffffffffffffffffffffffff16815260200190815260200160002060009054906101000a900460ff16905092915050565b610b08816110e5565b610b47576040517f08c379a0000000000000000000000000000000000000000000000000000000008152600401610b3e9061257a565b60405180910390fd5b60006008600083815260200190815260200160002054905080341015610ba2576040517f08c379a0000000000000000000000000000000000000000000000000000000008152600401610b999061274f565b60405180910390fd5b6000610bad8361076d565b90503373ffffffffffffffffffffffffffffffffffffffff168173ffffffffffffffffffffffffffffffffffffffff1603610c1d576040517f08c379a0000000000000000000000000000000000000000000000000000000008152600401610c14906127bb565b60405180910390fd5b610c28813385611621565b8073ffffffffffffffffffffffffffffffffffffffff166108fc349081150290604051600060405180830381858888f19350505050158015610c6e573d6000803e3d6000fd5b5081341115610cca573373ffffffffffffffffffffffffffffffffffffffff166108fc8334610c9d91906127db565b9081150290604051600060405180830381858888f19350505050158015610cc8573d6000803e3d6000fd5b505b7f3ceffd410054fdaed44f598ff5c1fb450658778e2241892da4aa646979dee617338484604051610cfd9392919061280f565b60405180910390a1505050565b60007f80ac58cd000000000000000000000000000000000000000000000000000000007bffffffffffffffffffffffffffffffffffffffffffffffffffffffff1916827bffffffffffffffffffffffffffffffffffffffffffffffffffffffff19161480610dd557507f5b5e139f000000000000000000000000000000000000000000000000000000007bffffffffffffffffffffffffffffffffffffffffffffffffffffffff1916827bffffffffffffffffffffffffffffffffffffffffffffffffffffffff1916145b80610de55750610de48261178e565b5b9050919050565b600080610df8836117f8565b9050600073ffffffffffffffffffffffffffffffffffffffff168173ffffffffffffffffffffffffffffffffffffffff1603610e6b57826040517f7e273289000000000000000000000000000000000000000000000000000000008152600401610e62919061211b565b60405180910390fd5b80915050919050565b60006004600083815260200190815260200160002060009054906101000a900473ffffffffffffffffffffffffffffffffffffffff169050919050565b600033905090565b610ec68383836001611835565b505050565b600080610ed7846117f8565b9050600073ffffffffffffffffffffffffffffffffffffffff168373ffffffffffffffffffffffffffffffffffffffff1614610f1957610f188184866119fa565b5b600073ffffffffffffffffffffffffffffffffffffffff168173ffffffffffffffffffffffffffffffffffffffff1614610faa57610f5b600085600080611835565b6001600360008373ffffffffffffffffffffffffffffffffffffffff1673ffffffffffffffffffffffffffffffffffffffff168152602001908152602001600020600082825403925050819055505b600073ffffffffffffffffffffffffffffffffffffffff168573ffffffffffffffffffffffffffffffffffffffff161461102d576001600360008773ffffffffffffffffffffffffffffffffffffffff1673ffffffffffffffffffffffffffffffffffffffff168152602001908152602001600020600082825401925050819055505b846002600086815260200190815260200160002060006101000a81548173ffffffffffffffffffffffffffffffffffffffff021916908373ffffffffffffffffffffffffffffffffffffffff160217905550838573ffffffffffffffffffffffffffffffffffffffff168273ffffffffffffffffffffffffffffffffffffffff167fddf252ad1be2c89b69c2b068fc378daa952ba7f163c4a11628f55a4df523b3ef60405160405180910390a4809150509392505050565b60008073ffffffffffffffffffffffffffffffffffffffff16611107836117f8565b73ffffffffffffffffffffffffffffffffffffffff1614159050919050565b600073ffffffffffffffffffffffffffffffffffffffff168273ffffffffffffffffffffffffffffffffffffffff16036111985760006040517f64a0ae9200000000000000000000000000000000000000000000000000000000815260040161118f9190611fc5565b60405180910390fd5b60006111a683836000610ecb565b9050600073ffffffffffffffffffffffffffffffffffffffff168173ffffffffffffffffffffffffffffffffffffffff161461121a5760006040517f73c6ac6e0000000000000000000000000000000000000000000000000000000081526004016112119190611fc5565b60405180910390fd5b505050565b8060066000848152602001908152602001600020908161123f91906129f2565b507ff8e1a15aba9398e019f0b49df1a4fde98ee17ae345cb5f6b5e2c27f5033e8ce78260405161126f919061211b565b60405180910390a15050565b600073ffffffffffffffffffffffffffffffffffffffff168273ffffffffffffffffffffffffffffffffffffffff16036112ec57816040517f5b08ba180000000000000000000000000000000000000000000000000000000081526004016112e39190611fc5565b60405180910390fd5b80600560008573ffffffffffffffffffffffffffffffffffffffff1673ffffffffffffffffffffffffffffffffffffffff16815260200190815260200160002060008473ffffffffffffffffffffffffffffffffffffffff1673ffffffffffffffffffffffffffffffffffffffff16815260200190815260200160002060006101000a81548160ff0219169083151502179055508173ffffffffffffffffffffffffffffffffffffffff168373ffffffffffffffffffffffffffffffffffffffff167f17307eab39ab6107e8899845ad3d59bd9653f200f220920489ca2b5937696c31836040516113dd9190611e54565b60405180910390a3505050565b60008373ffffffffffffffffffffffffffffffffffffffff163b111561159b578273ffffffffffffffffffffffffffffffffffffffff1663150b7a0261142e610eb1565b8685856040518563ffffffff1660e01b81526004016114509493929190612b19565b6020604051808303816000875af192505050801561148c57506040513d601f19601f820116820180604052508101906114899190612b7a565b60015b611510573d80600081146114bc576040519150601f19603f3d011682016040523d82523d6000602084013e6114c1565b606091505b50600081510361150857836040517f64a0ae920000000000000000000000000000000000000000000000000000000081526004016114ff9190611fc5565b60405180910390fd5b805181602001fd5b63150b7a0260e01b7bffffffffffffffffffffffffffffffffffffffffffffffffffffffff1916817bffffffffffffffffffffffffffffffffffffffffffffffffffffffff19161461159957836040517f64a0ae920000000000000000000000000000000000000000000000000000000081526004016115909190611fc5565b60405180910390fd5b505b50505050565b606060405180602001604052806000815250905090565b60606115c382610dec565b5060006115ce6115a1565b905060008151116115ee5760405180602001604052806000815250611619565b806115f884611abe565b6040516020016116099291906126b9565b6040516020818303038152906040525b915050919050565b600073ffffffffffffffffffffffffffffffffffffffff168273ffffffffffffffffffffffffffffffffffffffff16036116935760006040517f64a0ae9200000000000000000000000000000000000000000000000000000000815260040161168a9190611fc5565b60405180910390fd5b60006116a183836000610ecb565b9050600073ffffffffffffffffffffffffffffffffffffffff168173ffffffffffffffffffffffffffffffffffffffff160361171457816040517f7e27328900000000000000000000000000000000000000000000000000000000815260040161170b919061211b565b60405180910390fd5b8373ffffffffffffffffffffffffffffffffffffffff168173ffffffffffffffffffffffffffffffffffffffff1614611788578382826040517f64283d7b00000000000000000000000000000000000000000000000000000000815260040161177f939291906124f7565b60405180910390fd5b50505050565b60007f01ffc9a7000000000000000000000000000000000000000000000000000000007bffffffffffffffffffffffffffffffffffffffffffffffffffffffff1916827bffffffffffffffffffffffffffffffffffffffffffffffffffffffff1916149050919050565b60006002600083815260200190815260200160002060009054906101000a900473ffffffffffffffffffffffffffffffffffffffff169050919050565b808061186e5750600073ffffffffffffffffffffffffffffffffffffffff168273ffffffffffffffffffffffffffffffffffffffff1614155b156119a257600061187e84610dec565b9050600073ffffffffffffffffffffffffffffffffffffffff168373ffffffffffffffffffffffffffffffffffffffff16141580156118e957508273ffffffffffffffffffffffffffffffffffffffff168173ffffffffffffffffffffffffffffffffffffffff1614155b80156118fc57506118fa8184610a6b565b155b1561193e57826040517fa9fbf51f0000000000000000000000000000000000000000000000000000000081526004016119359190611fc5565b60405180910390fd5b81156119a057838573ffffffffffffffffffffffffffffffffffffffff168273ffffffffffffffffffffffffffffffffffffffff167f8c5be1e5ebec7d5bd14f71427d1e84f3dd0314c0f7b2291e5b200ac8c7c3b92560405160405180910390a45b505b836004600085815260200190815260200160002060006101000a81548173ffffffffffffffffffffffffffffffffffffffff021916908373ffffffffffffffffffffffffffffffffffffffff16021790555050505050565b611a05838383611b8c565b611ab957600073ffffffffffffffffffffffffffffffffffffffff168373ffffffffffffffffffffffffffffffffffffffff1603611a7a57806040517f7e273289000000000000000000000000000000000000000000000000000000008152600401611a71919061211b565b60405180910390fd5b81816040517f177e802f000000000000000000000000000000000000000000000000000000008152600401611ab0929190612ba7565b60405180910390fd5b505050565b606060006001611acd84611c4d565b01905060008167ffffffffffffffff811115611aec57611aeb612140565b5b6040519080825280601f01601f191660200182016040528015611b1e5781602001600182028036833780820191505090505b509050600082602001820190505b600115611b81578080600190039150507f3031323334353637383961626364656600000000000000000000000000000000600a86061a8153600a8581611b7557611b74612bd0565b5b04945060008503611b2c575b819350505050919050565b60008073ffffffffffffffffffffffffffffffffffffffff168373ffffffffffffffffffffffffffffffffffffffff1614158015611c4457508273ffffffffffffffffffffffffffffffffffffffff168473ffffffffffffffffffffffffffffffffffffffff161480611c055750611c048484610a6b565b5b80611c4357508273ffffffffffffffffffffffffffffffffffffffff16611c2b83610e74565b73ffffffffffffffffffffffffffffffffffffffff16145b5b90509392505050565b600080600090507a184f03e93ff9f4daa797ed6e38ed64bf6a1f0100000000000000008310611cab577a184f03e93ff9f4daa797ed6e38ed64bf6a1f0100000000000000008381611ca157611ca0612bd0565b5b0492506040810190505b6d04ee2d6d415b85acef81000000008310611ce8576d04ee2d6d415b85acef81000000008381611cde57611cdd612bd0565b5b0492506020810190505b662386f26fc100008310611d1757662386f26fc100008381611d0d57611d0c612bd0565b5b0492506010810190505b6305f5e1008310611d40576305f5e1008381611d3657611d35612bd0565b5b0492506008810190505b6127108310611d65576127108381611d5b57611d5a612bd0565b5b0492506004810190505b60648310611d885760648381611d7e57611d7d612bd0565b5b0492506002810190505b600a8310611d97576001810190505b80915050919050565b6000604051905090565b600080fd5b600080fd5b60007fffffffff0000000000000000000000000000000000000000000000000000000082169050919050565b611de981611db4565b8114611df457600080fd5b50565b600081359050611e0681611de0565b92915050565b600060208284031215611e2257611e21611daa565b5b6000611e3084828501611df7565b91505092915050565b60008115159050919050565b611e4e81611e39565b82525050565b6000602082019050611e696000830184611e45565b92915050565b600081519050919050565b600082825260208201905092915050565b60005b83811015611ea9578082015181840152602081019050611e8e565b60008484015250505050565b6000601f19601f8301169050919050565b6000611ed182611e6f565b611edb8185611e7a565b9350611eeb818560208601611e8b565b611ef481611eb5565b840191505092915050565b60006020820190508181036000830152611f198184611ec6565b905092915050565b6000819050919050565b611f3481611f21565b8114611f3f57600080fd5b50565b600081359050611f5181611f2b565b92915050565b600060208284031215611f6d57611f6c611daa565b5b6000611f7b84828501611f42565b91505092915050565b600073ffffffffffffffffffffffffffffffffffffffff82169050919050565b6000611faf82611f84565b9050919050565b611fbf81611fa4565b82525050565b6000602082019050611fda6000830184611fb6565b92915050565b611fe981611fa4565b8114611ff457600080fd5b50565b60008135905061200681611fe0565b92915050565b6000806040838503121561202357612022611daa565b5b600061203185828601611ff7565b925050602061204285828601611f42565b9150509250929050565b60008060006060848603121561206557612064611daa565b5b600061207386828701611ff7565b935050602061208486828701611ff7565b925050604061209586828701611f42565b9150509250925092565b600080604083850312156120b6576120b5611daa565b5b60006120c485828601611f42565b92505060206120d585828601611f42565b9150509250929050565b6000602082840312156120f5576120f4611daa565b5b600061210384828501611ff7565b91505092915050565b61211581611f21565b82525050565b6000602082019050612130600083018461210c565b92915050565b600080fd5b600080fd5b7f4e487b7100000000000000000000000000000000000000000000000000000000600052604160045260246000fd5b61217882611eb5565b810181811067ffffffffffffffff8211171561219757612196612140565b5b80604052505050565b60006121aa611da0565b90506121b6828261216f565b919050565b600067ffffffffffffffff8211156121d6576121d5612140565b5b6121df82611eb5565b9050602081019050919050565b82818337600083830152505050565b600061220e612209846121bb565b6121a0565b90508281526020810184848401111561222a5761222961213b565b5b6122358482856121ec565b509392505050565b600082601f83011261225257612251612136565b5b81356122628482602086016121fb565b91505092915050565b6000806040838503121561228257612281611daa565b5b600083013567ffffffffffffffff8111156122a05761229f611daf565b5b6122ac8582860161223d565b92505060206122bd85828601611f42565b9150509250929050565b6122d081611e39565b81146122db57600080fd5b50565b6000813590506122ed816122c7565b92915050565b6000806040838503121561230a57612309611daa565b5b600061231885828601611ff7565b9250506020612329858286016122de565b9150509250929050565b600067ffffffffffffffff82111561234e5761234d612140565b5b61235782611eb5565b9050602081019050919050565b600061237761237284612333565b6121a0565b9050828152602081018484840111156123935761239261213b565b5b61239e8482856121ec565b509392505050565b600082601f8301126123bb576123ba612136565b5b81356123cb848260208601612364565b91505092915050565b600080600080608085870312156123ee576123ed611daa565b5b60006123fc87828801611ff7565b945050602061240d87828801611ff7565b935050604061241e87828801611f42565b925050606085013567ffffffffffffffff81111561243f5761243e611daf565b5b61244b878288016123a6565b91505092959194509250565b6000806040838503121561246e5761246d611daa565b5b600061247c85828601611ff7565b925050602061248d85828601611ff7565b9150509250929050565b7f4e487b7100000000000000000000000000000000000000000000000000000000600052602260045260246000fd5b600060028204905060018216806124de57607f821691505b6020821081036124f1576124f0612497565b5b50919050565b600060608201905061250c6000830186611fb6565b612519602083018561210c565b6125266040830184611fb6565b949350505050565b7f546f6b656e20646f6573206e6f74206578697374000000000000000000000000600082015250565b6000612564601483611e7a565b915061256f8261252e565b602082019050919050565b6000602082019050818103600083015261259381612557565b9050919050565b7f4f6e6c7920746865206f776e65722063616e2073657420746865207072696365600082015250565b60006125d0602083611e7a565b91506125db8261259a565b602082019050919050565b600060208201905081810360008301526125ff816125c3565b9050919050565b7f4e487b7100000000000000000000000000000000000000000000000000000000600052601160045260246000fd5b600061264082611f21565b91507fffffffffffffffffffffffffffffffffffffffffffffffffffffffffffffffff820361267257612671612606565b5b600182019050919050565b600081905092915050565b600061269382611e6f565b61269d818561267d565b93506126ad818560208601611e8b565b80840191505092915050565b60006126c58285612688565b91506126d18284612688565b91508190509392505050565b7f57616c6c65742062616c616e636520646f6573206e6f74206861766520656e6f60008201527f756768742063757272656e637920746f2062757920746865204e465400000000602082015250565b6000612739603c83611e7a565b9150612744826126dd565b604082019050919050565b600060208201905081810360008301526127688161272c565b9050919050565b7f4f776e65722063616e6e6f7420627579207468656972206f776e204e46540000600082015250565b60006127a5601e83611e7a565b91506127b08261276f565b602082019050919050565b600060208201905081810360008301526127d481612798565b9050919050565b60006127e682611f21565b91506127f183611f21565b925082820390508181111561280957612808612606565b5b92915050565b60006060820190506128246000830186611fb6565b612831602083018561210c565b61283e604083018461210c565b949350505050565b60008190508160005260206000209050919050565b60006020601f8301049050919050565b600082821b905092915050565b6000600883026128a87fffffffffffffffffffffffffffffffffffffffffffffffffffffffffffffffff8261286b565b6128b2868361286b565b95508019841693508086168417925050509392505050565b6000819050919050565b60006128ef6128ea6128e584611f21565b6128ca565b611f21565b9050919050565b6000819050919050565b612909836128d4565b61291d612915826128f6565b848454612878565b825550505050565b600090565b612932612925565b61293d818484612900565b505050565b5b818110156129615761295660008261292a565b600181019050612943565b5050565b601f8211156129a65761297781612846565b6129808461285b565b8101602085101561298f578190505b6129a361299b8561285b565b830182612942565b50505b505050565b600082821c905092915050565b60006129c9600019846008026129ab565b1980831691505092915050565b60006129e283836129b8565b9150826002028217905092915050565b6129fb82611e6f565b67ffffffffffffffff811115612a1457612a13612140565b5b612a1e82546124c6565b612a29828285612965565b600060209050601f831160018114612a5c5760008415612a4a578287015190505b612a5485826129d6565b865550612abc565b601f198416612a6a86612846565b60005b82811015612a9257848901518255600182019150602085019450602081019050612a6d565b86831015612aaf5784890151612aab601f8916826129b8565b8355505b6001600288020188555050505b505050505050565b600081519050919050565b600082825260208201905092915050565b6000612aeb82612ac4565b612af58185612acf565b9350612b05818560208601611e8b565b612b0e81611eb5565b840191505092915050565b6000608082019050612b2e6000830187611fb6565b612b3b6020830186611fb6565b612b48604083018561210c565b8181036060830152612b5a8184612ae0565b905095945050505050565b600081519050612b7481611de0565b92915050565b600060208284031215612b9057612b8f611daa565b5b6000612b9e84828501612b65565b91505092915050565b6000604082019050612bbc6000830185611fb6565b612bc9602083018461210c565b9392505050565b7f4e487b7100000000000000000000000000000000000000000000000000000000600052601260045260246000fdfea26469706673582212201b88295bd6dde0955178439ee47fa1301f13411b3db1f811d692f9590220b3af64736f6c63430008180033",
  "linkReferences": {},
  "deployedLinkReferences": {}
}