{
  "_format": "hh-sol-artifact-1",
  "contractName": "PreSigningData",
  "sourceName": "contracts/Airdrop.sol",
  "abi": [
    {
      "anonymous": false,
      "inputs": [
        {
          "indexed": true,
          "internalType": "address",
          "name": "user",
          "type": "address"
        },
        {
          "indexed": false,
          "internalType": "bool",
          "name": "agreeTnC",
          "type": "bool"
        },
        {
          "indexed": false,
          "internalType": "string",
          "name": "shipName",
          "type": "string"
        },
        {
          "indexed": false,
          "internalType": "address",
          "name": "walletAddress",
          "type": "address"
        },
        {
          "indexed": false,
          "internalType": "string",
          "name": "referralCode",
          "type": "string"
        }
      ],
      "name": "UserRegistered",
      "type": "event"
    },
    {
      "inputs": [
        {
          "internalType": "address",
          "name": "_user",
          "type": "address"
        }
      ],
      "name": "getUserData",
      "outputs": [
        {
          "internalType": "bool",
          "name": "",
          "type": "bool"
        },
        {
          "internalType": "string",
          "name": "",
          "type": "string"
        },
        {
          "internalType": "address",
          "name": "",
          "type": "address"
        },
        {
          "internalType": "string",
          "name": "",
          "type": "string"
        },
        {
          "internalType": "bool",
          "name": "",
          "type": "bool"
        }
      ],
      "stateMutability": "view",
      "type": "function"
    },
    {
      "inputs": [
        {
          "internalType": "string",
          "name": "referralCode",
          "type": "string"
        }
      ],
      "name": "redeemReward",
      "outputs": [],
      "stateMutability": "nonpayable",
      "type": "function"
    },
    {
      "inputs": [
        {
          "internalType": "bool",
          "name": "_agreeTnC",
          "type": "bool"
        },
        {
          "internalType": "string",
          "name": "_shipName",
          "type": "string"
        },
        {
          "internalType": "address",
          "name": "_address",
          "type": "address"
        },
        {
          "internalType": "string",
          "name": "_referralCode",
          "type": "string"
        }
      ],
      "name": "registerUser",
      "outputs": [],
      "stateMutability": "nonpayable",
      "type": "function"
    },
    {
      "stateMutability": "payable",
      "type": "receive"
    }
  ],
  "bytecode": "0x608060405234801561001057600080fd5b506115aa806100206000396000f3fe6080604052600436106100385760003560e01c80639030114814610044578063cc16ab3e1461006d578063ffc9896b146100965761003f565b3661003f57005b600080fd5b34801561005057600080fd5b5061006b60048036038101906100669190610c01565b6100d7565b005b34801561007957600080fd5b50610094600480360381019061008f9190610ca0565b610485565b005b3480156100a257600080fd5b506100bd60048036038101906100b89190610ce9565b6107de565b6040516100ce959493929190610db3565b60405180910390f35b600083511161011b576040517f08c379a000000000000000000000000000000000000000000000000000000000815260040161011290610e60565b60405180910390fd5b600073ffffffffffffffffffffffffffffffffffffffff166000808473ffffffffffffffffffffffffffffffffffffffff1673ffffffffffffffffffffffffffffffffffffffff16815260200190815260200160002060020160009054906101000a900473ffffffffffffffffffffffffffffffffffffffff1673ffffffffffffffffffffffffffffffffffffffff16146101eb576040517f08c379a00000000000000000000000000000000000000000000000000000000081526004016101e290610ef2565b60405180910390fd5b600073ffffffffffffffffffffffffffffffffffffffff166001826040516102139190610f4e565b908152602001604051809103902060009054906101000a900473ffffffffffffffffffffffffffffffffffffffff1673ffffffffffffffffffffffffffffffffffffffff1614610298576040517f08c379a000000000000000000000000000000000000000000000000000000000815260040161028f90610fb1565b60405180910390fd5b6040518060a0016040528085151581526020018481526020018373ffffffffffffffffffffffffffffffffffffffff168152602001828152602001600015158152506000808473ffffffffffffffffffffffffffffffffffffffff1673ffffffffffffffffffffffffffffffffffffffff16815260200190815260200160002060008201518160000160006101000a81548160ff021916908315150217905550602082015181600101908161034d91906111e7565b5060408201518160020160006101000a81548173ffffffffffffffffffffffffffffffffffffffff021916908373ffffffffffffffffffffffffffffffffffffffff16021790555060608201518160030190816103aa91906111e7565b5060808201518160040160006101000a81548160ff021916908315150217905550905050816001826040516103df9190610f4e565b908152602001604051809103902060006101000a81548173ffffffffffffffffffffffffffffffffffffffff021916908373ffffffffffffffffffffffffffffffffffffffff1602179055508173ffffffffffffffffffffffffffffffffffffffff167fa69bce11df02834825f3260c223a484eb86c288469469cce9c909d8662c39a258585858560405161047794939291906112b9565b60405180910390a250505050565b60006001826040516104979190610f4e565b908152602001604051809103902060009054906101000a900473ffffffffffffffffffffffffffffffffffffffff169050600073ffffffffffffffffffffffffffffffffffffffff168173ffffffffffffffffffffffffffffffffffffffff1603610537576040517f08c379a000000000000000000000000000000000000000000000000000000000815260040161052e90611358565b60405180910390fd5b60008060008373ffffffffffffffffffffffffffffffffffffffff1673ffffffffffffffffffffffffffffffffffffffff1681526020019081526020016000209050600015158160040160009054906101000a900460ff161515146105d1576040517f08c379a00000000000000000000000000000000000000000000000000000000081526004016105c8906113c4565b60405180910390fd5b670de0b6b3a764000047101561061c576040517f08c379a000000000000000000000000000000000000000000000000000000000815260040161061390611456565b60405180910390fd5b60018160040160006101000a81548160ff021916908315150217905550806000808473ffffffffffffffffffffffffffffffffffffffff1673ffffffffffffffffffffffffffffffffffffffff1681526020019081526020016000206000820160009054906101000a900460ff168160000160006101000a81548160ff021916908315150217905550600182018160010190816106b9919061148c565b506002820160009054906101000a900473ffffffffffffffffffffffffffffffffffffffff168160020160006101000a81548173ffffffffffffffffffffffffffffffffffffffff021916908373ffffffffffffffffffffffffffffffffffffffff16021790555060038201816003019081610735919061148c565b506004820160009054906101000a900460ff168160040160006101000a81548160ff0219169083151502179055509050508060020160009054906101000a900473ffffffffffffffffffffffffffffffffffffffff1673ffffffffffffffffffffffffffffffffffffffff166108fc670de0b6b3a76400009081150290604051600060405180830381858888f193505050501580156107d8573d6000803e3d6000fd5b50505050565b60006060600060606000806000808873ffffffffffffffffffffffffffffffffffffffff1673ffffffffffffffffffffffffffffffffffffffff1681526020019081526020016000206040518060a00160405290816000820160009054906101000a900460ff1615151515815260200160018201805461085d90611000565b80601f016020809104026020016040519081016040528092919081815260200182805461088990611000565b80156108d65780601f106108ab576101008083540402835291602001916108d6565b820191906000526020600020905b8154815290600101906020018083116108b957829003601f168201915b505050505081526020016002820160009054906101000a900473ffffffffffffffffffffffffffffffffffffffff1673ffffffffffffffffffffffffffffffffffffffff1673ffffffffffffffffffffffffffffffffffffffff16815260200160038201805461094590611000565b80601f016020809104026020016040519081016040528092919081815260200182805461097190611000565b80156109be5780601f10610993576101008083540402835291602001916109be565b820191906000526020600020905b8154815290600101906020018083116109a157829003601f168201915b505050505081526020016004820160009054906101000a900460ff161515151581525050905080600001518160200151826040015183606001518460800151955095509550955095505091939590929450565b6000604051905090565b600080fd5b600080fd5b60008115159050919050565b610a3a81610a25565b8114610a4557600080fd5b50565b600081359050610a5781610a31565b92915050565b600080fd5b600080fd5b6000601f19601f8301169050919050565b7f4e487b7100000000000000000000000000000000000000000000000000000000600052604160045260246000fd5b610ab082610a67565b810181811067ffffffffffffffff82111715610acf57610ace610a78565b5b80604052505050565b6000610ae2610a11565b9050610aee8282610aa7565b919050565b600067ffffffffffffffff821115610b0e57610b0d610a78565b5b610b1782610a67565b9050602081019050919050565b82818337600083830152505050565b6000610b46610b4184610af3565b610ad8565b905082815260208101848484011115610b6257610b61610a62565b5b610b6d848285610b24565b509392505050565b600082601f830112610b8a57610b89610a5d565b5b8135610b9a848260208601610b33565b91505092915050565b600073ffffffffffffffffffffffffffffffffffffffff82169050919050565b6000610bce82610ba3565b9050919050565b610bde81610bc3565b8114610be957600080fd5b50565b600081359050610bfb81610bd5565b92915050565b60008060008060808587031215610c1b57610c1a610a1b565b5b6000610c2987828801610a48565b945050602085013567ffffffffffffffff811115610c4a57610c49610a20565b5b610c5687828801610b75565b9350506040610c6787828801610bec565b925050606085013567ffffffffffffffff811115610c8857610c87610a20565b5b610c9487828801610b75565b91505092959194509250565b600060208284031215610cb657610cb5610a1b565b5b600082013567ffffffffffffffff811115610cd457610cd3610a20565b5b610ce084828501610b75565b91505092915050565b600060208284031215610cff57610cfe610a1b565b5b6000610d0d84828501610bec565b91505092915050565b610d1f81610a25565b82525050565b600081519050919050565b600082825260208201905092915050565b60005b83811015610d5f578082015181840152602081019050610d44565b60008484015250505050565b6000610d7682610d25565b610d808185610d30565b9350610d90818560208601610d41565b610d9981610a67565b840191505092915050565b610dad81610bc3565b82525050565b600060a082019050610dc86000830188610d16565b8181036020830152610dda8187610d6b565b9050610de96040830186610da4565b8181036060830152610dfb8185610d6b565b9050610e0a6080830184610d16565b9695505050505050565b7f53686970206e616d652063616e6e6f7420626520656d7074792e000000000000600082015250565b6000610e4a601a83610d30565b9150610e5582610e14565b602082019050919050565b60006020820190508181036000830152610e7981610e3d565b9050919050565b7f546869732077616c6c657420697320616c72656164792072656769737465726560008201527f642e000000000000000000000000000000000000000000000000000000000000602082015250565b6000610edc602283610d30565b9150610ee782610e80565b604082019050919050565b60006020820190508181036000830152610f0b81610ecf565b9050919050565b600081905092915050565b6000610f2882610d25565b610f328185610f12565b9350610f42818560208601610d41565b80840191505092915050565b6000610f5a8284610f1d565b915081905092915050565b7f526566657272616c20636f646520616c726561647920696e207573652e000000600082015250565b6000610f9b601d83610d30565b9150610fa682610f65565b602082019050919050565b60006020820190508181036000830152610fca81610f8e565b9050919050565b7f4e487b7100000000000000000000000000000000000000000000000000000000600052602260045260246000fd5b6000600282049050600182168061101857607f821691505b60208210810361102b5761102a610fd1565b5b50919050565b60008190508160005260206000209050919050565b60006020601f8301049050919050565b600082821b905092915050565b6000600883026110937fffffffffffffffffffffffffffffffffffffffffffffffffffffffffffffffff82611056565b61109d8683611056565b95508019841693508086168417925050509392505050565b6000819050919050565b6000819050919050565b60006110e46110df6110da846110b5565b6110bf565b6110b5565b9050919050565b6000819050919050565b6110fe836110c9565b61111261110a826110eb565b848454611063565b825550505050565b600090565b61112761111a565b6111328184846110f5565b505050565b5b818110156111565761114b60008261111f565b600181019050611138565b5050565b601f82111561119b5761116c81611031565b61117584611046565b81016020851015611184578190505b61119861119085611046565b830182611137565b50505b505050565b600082821c905092915050565b60006111be600019846008026111a0565b1980831691505092915050565b60006111d783836111ad565b9150826002028217905092915050565b6111f082610d25565b67ffffffffffffffff81111561120957611208610a78565b5b6112138254611000565b61121e82828561115a565b600060209050601f831160018114611251576000841561123f578287015190505b61124985826111cb565b8655506112b1565b601f19841661125f86611031565b60005b8281101561128757848901518255600182019150602085019450602081019050611262565b868310156112a457848901516112a0601f8916826111ad565b8355505b6001600288020188555050505b505050505050565b60006080820190506112ce6000830187610d16565b81810360208301526112e08186610d6b565b90506112ef6040830185610da4565b81810360608301526113018184610d6b565b905095945050505050565b7f526566657272616c20436f646520646f6573206e6f7420657869737400000000600082015250565b6000611342601c83610d30565b915061134d8261130c565b602082019050919050565b6000602082019050818103600083015261137181611335565b9050919050565b7f5573657220616c726561647920726564656d7074656420726577617264000000600082015250565b60006113ae601d83610d30565b91506113b982611378565b602082019050919050565b600060208201905081810360008301526113dd816113a1565b9050919050565b7f54686520636f6e747261637420646f65736e2774206861766520656e6f75676860008201527f742062616c616e636520666f722072656465656d000000000000000000000000602082015250565b6000611440603483610d30565b915061144b826113e4565b604082019050919050565b6000602082019050818103600083015261146f81611433565b9050919050565b60008154905061148581611000565b9050919050565b81810361149a575050611572565b6114a382611476565b67ffffffffffffffff8111156114bc576114bb610a78565b5b6114c68254611000565b6114d182828561115a565b6000601f83116001811461150057600084156114ee578287015490505b6114f885826111cb565b86555061156b565b601f19841661150e87611031565b965061151986611031565b60005b828110156115415784890154825560018201915060018501945060208101905061151c565b8683101561155e578489015461155a601f8916826111ad565b8355505b6001600288020188555050505b5050505050505b56fea26469706673582212206761d9c1f94e50330a00b4fa43597c4f58a93c6e773c9e13cbc51352a3e14f4364736f6c63430008180033",
  "linkReferences": {},
  "deployedLinkReferences": {}
}