{
  "_format": "hh-sol-artifact-1",
  "contractName": "InkiiStaking",
  "sourceName": "contracts/InkiiStaking.sol",
  "abi": [
    {
      "inputs": [
        {
          "internalType": "uint256",
          "name": "_rewardPercentage",
          "type": "uint256"
        },
        {
          "internalType": "uint256",
          "name": "_stakingDuration",
          "type": "uint256"
        }
      ],
      "stateMutability": "nonpayable",
      "type": "constructor"
    },
    {
      "anonymous": false,
      "inputs": [
        {
          "indexed": false,
          "internalType": "uint256",
          "name": "newRewardPercentage",
          "type": "uint256"
        }
      ],
      "name": "RewardPercentageChanged",
      "type": "event"
    },
    {
      "anonymous": false,
      "inputs": [
        {
          "indexed": true,
          "internalType": "address",
          "name": "user",
          "type": "address"
        },
        {
          "indexed": false,
          "internalType": "uint256",
          "name": "amount",
          "type": "uint256"
        },
        {
          "indexed": false,
          "internalType": "uint256",
          "name": "startTime",
          "type": "uint256"
        },
        {
          "indexed": false,
          "internalType": "uint256",
          "name": "finishDate",
          "type": "uint256"
        }
      ],
      "name": "Staked",
      "type": "event"
    },
    {
      "anonymous": false,
      "inputs": [
        {
          "indexed": false,
          "internalType": "uint256",
          "name": "newDuration",
          "type": "uint256"
        }
      ],
      "name": "StakingDurationChanged",
      "type": "event"
    },
    {
      "anonymous": false,
      "inputs": [
        {
          "indexed": true,
          "internalType": "address",
          "name": "user",
          "type": "address"
        },
        {
          "indexed": false,
          "internalType": "uint256",
          "name": "amount",
          "type": "uint256"
        },
        {
          "indexed": false,
          "internalType": "uint256",
          "name": "reward",
          "type": "uint256"
        }
      ],
      "name": "Unstaked",
      "type": "event"
    },
    {
      "inputs": [
        {
          "internalType": "uint256",
          "name": "_startTime",
          "type": "uint256"
        }
      ],
      "name": "calculateReward",
      "outputs": [
        {
          "internalType": "uint256",
          "name": "",
          "type": "uint256"
        }
      ],
      "stateMutability": "view",
      "type": "function"
    },
    {
      "inputs": [
        {
          "internalType": "address",
          "name": "wallet",
          "type": "address"
        }
      ],
      "name": "getStakingInfo",
      "outputs": [
        {
          "components": [
            {
              "internalType": "uint256",
              "name": "amount",
              "type": "uint256"
            },
            {
              "internalType": "uint256",
              "name": "startTime",
              "type": "uint256"
            },
            {
              "internalType": "uint256",
              "name": "finishTime",
              "type": "uint256"
            },
            {
              "internalType": "uint256",
              "name": "reward",
              "type": "uint256"
            }
          ],
          "internalType": "struct InkiiStaking.Stake",
          "name": "",
          "type": "tuple"
        }
      ],
      "stateMutability": "view",
      "type": "function"
    },
    {
      "inputs": [],
      "name": "rewardPercentage",
      "outputs": [
        {
          "internalType": "uint256",
          "name": "",
          "type": "uint256"
        }
      ],
      "stateMutability": "view",
      "type": "function"
    },
    {
      "inputs": [
        {
          "internalType": "uint256",
          "name": "_newPercentage",
          "type": "uint256"
        }
      ],
      "name": "setRewardPercentage",
      "outputs": [],
      "stateMutability": "nonpayable",
      "type": "function"
    },
    {
      "inputs": [
        {
          "internalType": "uint256",
          "name": "_newDuration",
          "type": "uint256"
        }
      ],
      "name": "setStakingDuration",
      "outputs": [],
      "stateMutability": "nonpayable",
      "type": "function"
    },
    {
      "inputs": [],
      "name": "stake",
      "outputs": [],
      "stateMutability": "payable",
      "type": "function"
    },
    {
      "inputs": [],
      "name": "stakingDuration",
      "outputs": [
        {
          "internalType": "uint256",
          "name": "",
          "type": "uint256"
        }
      ],
      "stateMutability": "view",
      "type": "function"
    },
    {
      "inputs": [],
      "name": "unstake",
      "outputs": [],
      "stateMutability": "nonpayable",
      "type": "function"
    }
  ],
  "bytecode": "0x608060405234801561001057600080fd5b50604051610f06380380610f06833981810160405281019061003291906100c2565b336000806101000a81548173ffffffffffffffffffffffffffffffffffffffff021916908373ffffffffffffffffffffffffffffffffffffffff16021790555081600181905550806002819055505050610102565b600080fd5b6000819050919050565b61009f8161008c565b81146100aa57600080fd5b50565b6000815190506100bc81610096565b92915050565b600080604083850312156100d9576100d8610087565b5b60006100e7858286016100ad565b92505060206100f8858286016100ad565b9150509250929050565b610df5806101116000396000f3fe60806040526004361061007b5760003560e01c80636a8ca6911161004e5780636a8ca691146100f55780638005a7de1461011e578063aa4704f314610149578063d2d7231f146101865761007b565b806309653674146100805780632def6620146100a95780633a4b66f1146100c057806352d472eb146100ca575b600080fd5b34801561008c57600080fd5b506100a760048036038101906100a29190610872565b6101c3565b005b3480156100b557600080fd5b506100be610292565b005b6100c8610499565b005b3480156100d657600080fd5b506100df61066d565b6040516100ec91906108ae565b60405180910390f35b34801561010157600080fd5b5061011c60048036038101906101179190610872565b610673565b005b34801561012a57600080fd5b50610133610742565b60405161014091906108ae565b60405180910390f35b34801561015557600080fd5b50610170600480360381019061016b9190610927565b610748565b60405161017d91906109b8565b60405180910390f35b34801561019257600080fd5b506101ad60048036038101906101a89190610872565b6107c9565b6040516101ba91906108ae565b60405180910390f35b60008054906101000a900473ffffffffffffffffffffffffffffffffffffffff1673ffffffffffffffffffffffffffffffffffffffff163373ffffffffffffffffffffffffffffffffffffffff1614610251576040517f08c379a000000000000000000000000000000000000000000000000000000000815260040161024890610a56565b60405180910390fd5b806001819055507f23ad5751be9629264e3725ea971a625cff4033b5a3df9f4526e8a32159c0fa898160405161028791906108ae565b60405180910390a150565b6000600360003373ffffffffffffffffffffffffffffffffffffffff1673ffffffffffffffffffffffffffffffffffffffff1681526020019081526020016000206040518060800160405290816000820154815260200160018201548152602001600282015481526020016003820154815250509050600081600001511161034f576040517f08c379a000000000000000000000000000000000000000000000000000000000815260040161034690610ac2565b60405180910390fd5b8060400151421015610396576040517f08c379a000000000000000000000000000000000000000000000000000000000815260040161038d90610b2e565b60405180910390fd5b6000816060015182600001516103ac9190610b7d565b90506000600360003373ffffffffffffffffffffffffffffffffffffffff1673ffffffffffffffffffffffffffffffffffffffff168152602001908152602001600020600001819055503373ffffffffffffffffffffffffffffffffffffffff166108fc829081150290604051600060405180830381858888f1935050505015801561043c573d6000803e3d6000fd5b503373ffffffffffffffffffffffffffffffffffffffff167f7fc4727e062e336010f2c282598ef5f14facb3de68cf8195c2f23e1454b2b74e8360000151846060015160405161048d929190610bb1565b60405180910390a25050565b600034116104dc576040517f08c379a00000000000000000000000000000000000000000000000000000000081526004016104d390610c26565b60405180910390fd5b6000600360003373ffffffffffffffffffffffffffffffffffffffff1673ffffffffffffffffffffffffffffffffffffffff1681526020019081526020016000206000015414610561576040517f08c379a000000000000000000000000000000000000000000000000000000000815260040161055890610c92565b60405180910390fd5b6000429050600034905060006002548361057b9190610b7d565b90506000610588846107c9565b9050604051806080016040528084815260200185815260200183815260200182815250600360003373ffffffffffffffffffffffffffffffffffffffff1673ffffffffffffffffffffffffffffffffffffffff168152602001908152602001600020600082015181600001556020820151816001015560408201518160020155606082015181600301559050503373ffffffffffffffffffffffffffffffffffffffff167fb4caaf29adda3eefee3ad552a8e85058589bf834c7466cae4ee58787f70589ed84868560405161065f93929190610cb2565b60405180910390a250505050565b60015481565b60008054906101000a900473ffffffffffffffffffffffffffffffffffffffff1673ffffffffffffffffffffffffffffffffffffffff163373ffffffffffffffffffffffffffffffffffffffff1614610701576040517f08c379a00000000000000000000000000000000000000000000000000000000081526004016106f890610a56565b60405180910390fd5b806002819055507f104f3f1e9b855be656b8964feeb336ca98c02c453110d7ebeb5d1d75997c1ece8160405161073791906108ae565b60405180910390a150565b60025481565b61075061080f565b600360008373ffffffffffffffffffffffffffffffffffffffff1673ffffffffffffffffffffffffffffffffffffffff1681526020019081526020016000206040518060800160405290816000820154815260200160018201548152602001600282015481526020016003820154815250509050919050565b60008082426107d89190610ce9565b90506000600254826107ea9190610d4c565b90506064600154826107fc9190610d7d565b6108069190610d4c565b92505050919050565b6040518060800160405280600081526020016000815260200160008152602001600081525090565b600080fd5b6000819050919050565b61084f8161083c565b811461085a57600080fd5b50565b60008135905061086c81610846565b92915050565b60006020828403121561088857610887610837565b5b60006108968482850161085d565b91505092915050565b6108a88161083c565b82525050565b60006020820190506108c3600083018461089f565b92915050565b600073ffffffffffffffffffffffffffffffffffffffff82169050919050565b60006108f4826108c9565b9050919050565b610904816108e9565b811461090f57600080fd5b50565b600081359050610921816108fb565b92915050565b60006020828403121561093d5761093c610837565b5b600061094b84828501610912565b91505092915050565b61095d8161083c565b82525050565b6080820160008201516109796000850182610954565b50602082015161098c6020850182610954565b50604082015161099f6040850182610954565b5060608201516109b26060850182610954565b50505050565b60006080820190506109cd6000830184610963565b92915050565b600082825260208201905092915050565b7f4f6e6c79206f776e65722063616e2063616c6c20746869732066756e6374696f60008201527f6e00000000000000000000000000000000000000000000000000000000000000602082015250565b6000610a406021836109d3565b9150610a4b826109e4565b604082019050919050565b60006020820190508181036000830152610a6f81610a33565b9050919050565b7f4e6f20616374697665207374616b650000000000000000000000000000000000600082015250565b6000610aac600f836109d3565b9150610ab782610a76565b602082019050919050565b60006020820190508181036000830152610adb81610a9f565b9050919050565b7f5374616b696e6720706572696f64206e6f7420636f6d706c6574656400000000600082015250565b6000610b18601c836109d3565b9150610b2382610ae2565b602082019050919050565b60006020820190508181036000830152610b4781610b0b565b9050919050565b7f4e487b7100000000000000000000000000000000000000000000000000000000600052601160045260246000fd5b6000610b888261083c565b9150610b938361083c565b9250828201905080821115610bab57610baa610b4e565b5b92915050565b6000604082019050610bc6600083018561089f565b610bd3602083018461089f565b9392505050565b7f416d6f756e742073686f756c642062652067726561746572207468616e203000600082015250565b6000610c10601f836109d3565b9150610c1b82610bda565b602082019050919050565b60006020820190508181036000830152610c3f81610c03565b9050919050565b7f416c7265616479207374616b696e670000000000000000000000000000000000600082015250565b6000610c7c600f836109d3565b9150610c8782610c46565b602082019050919050565b60006020820190508181036000830152610cab81610c6f565b9050919050565b6000606082019050610cc7600083018661089f565b610cd4602083018561089f565b610ce1604083018461089f565b949350505050565b6000610cf48261083c565b9150610cff8361083c565b9250828203905081811115610d1757610d16610b4e565b5b92915050565b7f4e487b7100000000000000000000000000000000000000000000000000000000600052601260045260246000fd5b6000610d578261083c565b9150610d628361083c565b925082610d7257610d71610d1d565b5b828204905092915050565b6000610d888261083c565b9150610d938361083c565b9250828202610da18161083c565b91508282048414831517610db857610db7610b4e565b5b509291505056fea2646970667358221220f4247ab8002d1155e9f034c8261a8914bf2090fd75aaa94e20fb08522794270e64736f6c63430008180033",
  "linkReferences": {},
  "deployedLinkReferences": {}
}