{
  "_format": "hh-sol-artifact-1",
  "contractName": "SignTC",
  "sourceName": "contracts/SignTC.sol",
  "abi": [
    {
      "inputs": [
        {
          "internalType": "address",
          "name": "initialOwner",
          "type": "address"
        }
      ],
      "stateMutability": "nonpayable",
      "type": "constructor"
    },
    {
      "inputs": [
        {
          "internalType": "address",
          "name": "owner",
          "type": "address"
        }
      ],
      "name": "OwnableInvalidOwner",
      "type": "error"
    },
    {
      "inputs": [
        {
          "internalType": "address",
          "name": "account",
          "type": "address"
        }
      ],
      "name": "OwnableUnauthorizedAccount",
      "type": "error"
    },
    {
      "anonymous": false,
      "inputs": [
        {
          "indexed": true,
          "internalType": "address",
          "name": "previousOwner",
          "type": "address"
        },
        {
          "indexed": true,
          "internalType": "address",
          "name": "newOwner",
          "type": "address"
        }
      ],
      "name": "OwnershipTransferred",
      "type": "event"
    },
    {
      "anonymous": false,
      "inputs": [
        {
          "indexed": true,
          "internalType": "string",
          "name": "username",
          "type": "string"
        },
        {
          "indexed": false,
          "internalType": "string",
          "name": "email",
          "type": "string"
        },
        {
          "indexed": false,
          "internalType": "string",
          "name": "signDate",
          "type": "string"
        }
      ],
      "name": "TCSigned",
      "type": "event"
    },
    {
      "inputs": [
        {
          "internalType": "string",
          "name": "username",
          "type": "string"
        }
      ],
      "name": "getUserSignInfo",
      "outputs": [
        {
          "internalType": "string",
          "name": "",
          "type": "string"
        },
        {
          "internalType": "string",
          "name": "",
          "type": "string"
        },
        {
          "internalType": "string",
          "name": "",
          "type": "string"
        }
      ],
      "stateMutability": "view",
      "type": "function"
    },
    {
      "inputs": [],
      "name": "owner",
      "outputs": [
        {
          "internalType": "address",
          "name": "",
          "type": "address"
        }
      ],
      "stateMutability": "view",
      "type": "function"
    },
    {
      "inputs": [],
      "name": "renounceOwnership",
      "outputs": [],
      "stateMutability": "nonpayable",
      "type": "function"
    },
    {
      "inputs": [
        {
          "internalType": "string",
          "name": "username",
          "type": "string"
        },
        {
          "internalType": "string",
          "name": "email",
          "type": "string"
        },
        {
          "internalType": "string",
          "name": "signDate",
          "type": "string"
        }
      ],
      "name": "signTC",
      "outputs": [],
      "stateMutability": "nonpayable",
      "type": "function"
    },
    {
      "inputs": [
        {
          "internalType": "address",
          "name": "newOwner",
          "type": "address"
        }
      ],
      "name": "transferOwnership",
      "outputs": [],
      "stateMutability": "nonpayable",
      "type": "function"
    }
  ],
  "bytecode": "0x60806040523480156200001157600080fd5b50604051620012c1380380620012c18339818101604052810190620000379190620001f4565b80600073ffffffffffffffffffffffffffffffffffffffff168173ffffffffffffffffffffffffffffffffffffffff1603620000ad5760006040517f1e4fbdf7000000000000000000000000000000000000000000000000000000008152600401620000a4919062000237565b60405180910390fd5b620000be81620000c660201b60201c565b505062000254565b60008060009054906101000a900473ffffffffffffffffffffffffffffffffffffffff169050816000806101000a81548173ffffffffffffffffffffffffffffffffffffffff021916908373ffffffffffffffffffffffffffffffffffffffff1602179055508173ffffffffffffffffffffffffffffffffffffffff168173ffffffffffffffffffffffffffffffffffffffff167f8be0079c531659141344cd1fd0a4f28419497f9722a3daafe3b4186f6b6457e060405160405180910390a35050565b600080fd5b600073ffffffffffffffffffffffffffffffffffffffff82169050919050565b6000620001bc826200018f565b9050919050565b620001ce81620001af565b8114620001da57600080fd5b50565b600081519050620001ee81620001c3565b92915050565b6000602082840312156200020d576200020c6200018a565b5b60006200021d84828501620001dd565b91505092915050565b6200023181620001af565b82525050565b60006020820190506200024e600083018462000226565b92915050565b61105d80620002646000396000f3fe608060405234801561001057600080fd5b50600436106100575760003560e01c80632a82e4341461005c578063715018a61461008e5780638da5cb5b14610098578063bcf3937a146100b6578063f2fde38b146100d2575b600080fd5b61007660048036038101906100719190610895565b6100ee565b6040516100859392919061095d565b60405180910390f35b61009661037f565b005b6100a0610393565b6040516100ad91906109ea565b60405180910390f35b6100d060048036038101906100cb9190610a05565b6103bc565b005b6100ec60048036038101906100e79190610ad8565b610562565b005b60608060606000845111610137576040517f08c379a000000000000000000000000000000000000000000000000000000000815260040161012e90610b51565b60405180910390fd5b60006001856040516101499190610bad565b908152602001604051809103902060405180606001604052908160008201805461017290610bf3565b80601f016020809104026020016040519081016040528092919081815260200182805461019e90610bf3565b80156101eb5780601f106101c0576101008083540402835291602001916101eb565b820191906000526020600020905b8154815290600101906020018083116101ce57829003601f168201915b5050505050815260200160018201805461020490610bf3565b80601f016020809104026020016040519081016040528092919081815260200182805461023090610bf3565b801561027d5780601f106102525761010080835404028352916020019161027d565b820191906000526020600020905b81548152906001019060200180831161026057829003601f168201915b5050505050815260200160028201805461029690610bf3565b80601f01602080910402602001604051908101604052809291908181526020018280546102c290610bf3565b801561030f5780601f106102e45761010080835404028352916020019161030f565b820191906000526020600020905b8154815290600101906020018083116102f257829003601f168201915b5050505050815250509050600081600001515111610362576040517f08c379a000000000000000000000000000000000000000000000000000000000815260040161035990610c70565b60405180910390fd5b806000015181602001518260400151935093509350509193909250565b6103876105e8565b610391600061066f565b565b60008060009054906101000a900473ffffffffffffffffffffffffffffffffffffffff16905090565b6103c46105e8565b6000835111610408576040517f08c379a00000000000000000000000000000000000000000000000000000000081526004016103ff90610b51565b60405180910390fd5b600082511161044c576040517f08c379a000000000000000000000000000000000000000000000000000000000815260040161044390610cdc565b60405180910390fd5b6000815111610490576040517f08c379a000000000000000000000000000000000000000000000000000000000815260040161048790610d48565b60405180910390fd5b6040518060600160405280848152602001838152602001828152506001846040516104bb9190610bad565b908152602001604051809103902060008201518160000190816104de9190610f1e565b5060208201518160010190816104f49190610f1e565b50604082015181600201908161050a9190610f1e565b509050508260405161051c9190610bad565b60405180910390207f4a38db6b1a55afa2f870fc1114af5056931c39dbc78b4b36f7b48d75346ddda28383604051610555929190610ff0565b60405180910390a2505050565b61056a6105e8565b600073ffffffffffffffffffffffffffffffffffffffff168173ffffffffffffffffffffffffffffffffffffffff16036105dc5760006040517f1e4fbdf70000000000000000000000000000000000000000000000000000000081526004016105d391906109ea565b60405180910390fd5b6105e58161066f565b50565b6105f0610733565b73ffffffffffffffffffffffffffffffffffffffff1661060e610393565b73ffffffffffffffffffffffffffffffffffffffff161461066d57610631610733565b6040517f118cdaa700000000000000000000000000000000000000000000000000000000815260040161066491906109ea565b60405180910390fd5b565b60008060009054906101000a900473ffffffffffffffffffffffffffffffffffffffff169050816000806101000a81548173ffffffffffffffffffffffffffffffffffffffff021916908373ffffffffffffffffffffffffffffffffffffffff1602179055508173ffffffffffffffffffffffffffffffffffffffff168173ffffffffffffffffffffffffffffffffffffffff167f8be0079c531659141344cd1fd0a4f28419497f9722a3daafe3b4186f6b6457e060405160405180910390a35050565b600033905090565b6000604051905090565b600080fd5b600080fd5b600080fd5b600080fd5b6000601f19601f8301169050919050565b7f4e487b7100000000000000000000000000000000000000000000000000000000600052604160045260246000fd5b6107a282610759565b810181811067ffffffffffffffff821117156107c1576107c061076a565b5b80604052505050565b60006107d461073b565b90506107e08282610799565b919050565b600067ffffffffffffffff821115610800576107ff61076a565b5b61080982610759565b9050602081019050919050565b82818337600083830152505050565b6000610838610833846107e5565b6107ca565b90508281526020810184848401111561085457610853610754565b5b61085f848285610816565b509392505050565b600082601f83011261087c5761087b61074f565b5b813561088c848260208601610825565b91505092915050565b6000602082840312156108ab576108aa610745565b5b600082013567ffffffffffffffff8111156108c9576108c861074a565b5b6108d584828501610867565b91505092915050565b600081519050919050565b600082825260208201905092915050565b60005b838110156109185780820151818401526020810190506108fd565b60008484015250505050565b600061092f826108de565b61093981856108e9565b93506109498185602086016108fa565b61095281610759565b840191505092915050565b600060608201905081810360008301526109778186610924565b9050818103602083015261098b8185610924565b9050818103604083015261099f8184610924565b9050949350505050565b600073ffffffffffffffffffffffffffffffffffffffff82169050919050565b60006109d4826109a9565b9050919050565b6109e4816109c9565b82525050565b60006020820190506109ff60008301846109db565b92915050565b600080600060608486031215610a1e57610a1d610745565b5b600084013567ffffffffffffffff811115610a3c57610a3b61074a565b5b610a4886828701610867565b935050602084013567ffffffffffffffff811115610a6957610a6861074a565b5b610a7586828701610867565b925050604084013567ffffffffffffffff811115610a9657610a9561074a565b5b610aa286828701610867565b9150509250925092565b610ab5816109c9565b8114610ac057600080fd5b50565b600081359050610ad281610aac565b92915050565b600060208284031215610aee57610aed610745565b5b6000610afc84828501610ac3565b91505092915050565b7f557365726e616d652063616e6e6f7420626520656d7074790000000000000000600082015250565b6000610b3b6018836108e9565b9150610b4682610b05565b602082019050919050565b60006020820190508181036000830152610b6a81610b2e565b9050919050565b600081905092915050565b6000610b87826108de565b610b918185610b71565b9350610ba18185602086016108fa565b80840191505092915050565b6000610bb98284610b7c565b915081905092915050565b7f4e487b7100000000000000000000000000000000000000000000000000000000600052602260045260246000fd5b60006002820490506001821680610c0b57607f821691505b602082108103610c1e57610c1d610bc4565b5b50919050565b7f55736572206e6f7420666f756e64000000000000000000000000000000000000600082015250565b6000610c5a600e836108e9565b9150610c6582610c24565b602082019050919050565b60006020820190508181036000830152610c8981610c4d565b9050919050565b7f456d61696c2063616e6e6f7420626520656d7074790000000000000000000000600082015250565b6000610cc66015836108e9565b9150610cd182610c90565b602082019050919050565b60006020820190508181036000830152610cf581610cb9565b9050919050565b7f5369676e20446174652063616e6e6f7420626520656d70747900000000000000600082015250565b6000610d326019836108e9565b9150610d3d82610cfc565b602082019050919050565b60006020820190508181036000830152610d6181610d25565b9050919050565b60008190508160005260206000209050919050565b60006020601f8301049050919050565b600082821b905092915050565b600060088302610dca7fffffffffffffffffffffffffffffffffffffffffffffffffffffffffffffffff82610d8d565b610dd48683610d8d565b95508019841693508086168417925050509392505050565b6000819050919050565b6000819050919050565b6000610e1b610e16610e1184610dec565b610df6565b610dec565b9050919050565b6000819050919050565b610e3583610e00565b610e49610e4182610e22565b848454610d9a565b825550505050565b600090565b610e5e610e51565b610e69818484610e2c565b505050565b5b81811015610e8d57610e82600082610e56565b600181019050610e6f565b5050565b601f821115610ed257610ea381610d68565b610eac84610d7d565b81016020851015610ebb578190505b610ecf610ec785610d7d565b830182610e6e565b50505b505050565b600082821c905092915050565b6000610ef560001984600802610ed7565b1980831691505092915050565b6000610f0e8383610ee4565b9150826002028217905092915050565b610f27826108de565b67ffffffffffffffff811115610f4057610f3f61076a565b5b610f4a8254610bf3565b610f55828285610e91565b600060209050601f831160018114610f885760008415610f76578287015190505b610f808582610f02565b865550610fe8565b601f198416610f9686610d68565b60005b82811015610fbe57848901518255600182019150602085019450602081019050610f99565b86831015610fdb5784890151610fd7601f891682610ee4565b8355505b6001600288020188555050505b505050505050565b6000604082019050818103600083015261100a8185610924565b9050818103602083015261101e8184610924565b9050939250505056fea26469706673582212203c4108eb43e3c4c7cf59cd5598706d9d355773ba214a05e41d1031f6d9c9788e64736f6c63430008180033",
  "linkReferences": {},
  "deployedLinkReferences": {}
}