{
  "_format": "hh-sol-artifact-1",
  "contractName": "Swap",
  "sourceName": "contracts/Swap.sol",
  "abi": [
    {
      "inputs": [],
      "name": "bankContractAddress",
      "outputs": [
        {
          "internalType": "address",
          "name": "",
          "type": "address"
        }
      ],
      "stateMutability": "view",
      "type": "function"
    },
    {
      "inputs": [],
      "name": "buySkii",
      "outputs": [],
      "stateMutability": "payable",
      "type": "function"
    },
    {
      "inputs": [
        {
          "internalType": "uint256",
          "name": "amount",
          "type": "uint256"
        }
      ],
      "name": "sellSkii",
      "outputs": [],
      "stateMutability": "nonpayable",
      "type": "function"
    }
  ],
  "bytecode": "0x6080604052734381dc2ab14285160c808659aee005d51255add76000806101000a81548173ffffffffffffffffffffffffffffffffffffffff021916908373ffffffffffffffffffffffffffffffffffffffff16021790555034801561006457600080fd5b50610f5e806100746000396000f3fe6080604052600436106100345760003560e01c806388c068d814610039578063e2a9d77714610062578063e5034e0a1461006c575b600080fd5b34801561004557600080fd5b50610060600480360381019061005b919061060f565b610097565b005b61006a610296565b005b34801561007857600080fd5b50610081610587565b60405161008e919061067d565b60405180910390f35b60008060009054906101000a900473ffffffffffffffffffffffffffffffffffffffff16905060008173ffffffffffffffffffffffffffffffffffffffff16635c70e594306040518263ffffffff1660e01b81526004016100f8919061067d565b600060405180830381865afa158015610115573d6000803e3d6000fd5b505050506040513d6000823e3d601f19601f8201168201806040525081019061013e919061096a565b905060008273ffffffffffffffffffffffffffffffffffffffff16631dd7cecf3384600081518110610173576101726109b3565b5b6020026020010151602001516040518363ffffffff1660e01b815260040161019c929190610a37565b602060405180830381865afa1580156101b9573d6000803e3d6000fd5b505050506040513d601f19601f820116820180604052508101906101dd9190610a67565b9050620f4240846101ee9190610ac3565b811015610230576040517f08c379a000000000000000000000000000000000000000000000000000000000815260040161022790610b51565b60405180910390fd5b6000670de0b6b3a7640000856102469190610ac3565b90503373ffffffffffffffffffffffffffffffffffffffff166108fc829081150290604051600060405180830381858888f1935050505015801561028e573d6000803e3d6000fd5b505050505050565b670de0b6b3a76400003410156102e1576040517f08c379a00000000000000000000000000000000000000000000000000000000081526004016102d890610bbd565b60405180910390fd5b6000620f4240670de0b6b3a7640000346102fb9190610c0c565b6103059190610ac3565b905060008060009054906101000a900473ffffffffffffffffffffffffffffffffffffffff16905060008173ffffffffffffffffffffffffffffffffffffffff16635c70e594306040518263ffffffff1660e01b8152600401610368919061067d565b600060405180830381865afa158015610385573d6000803e3d6000fd5b505050506040513d6000823e3d601f19601f820116820180604052508101906103ae919061096a565b905082816000815181106103c5576103c46109b3565b5b6020026020010151600001511015610412576040517f08c379a000000000000000000000000000000000000000000000000000000000815260040161040990610caf565b60405180910390fd5b6000600167ffffffffffffffff81111561042f5761042e6106ae565b5b60405190808252806020026020018201604052801561046857816020015b6104556105ab565b81526020019060019003908161044d5790505b5090506040518060400160405280858152602001836000815181106104905761048f6109b3565b5b602002602001015160200151815250816000815181106104b3576104b26109b3565b5b602002602001018190525060008373ffffffffffffffffffffffffffffffffffffffff16637e075f0733846040518363ffffffff1660e01b81526004016104fb929190610e27565b6020604051808303816000875af115801561051a573d6000803e3d6000fd5b505050506040513d601f19601f8201168201806040525081019061053e9190610e8f565b905080610580576040517f08c379a000000000000000000000000000000000000000000000000000000000815260040161057790610f08565b60405180910390fd5b5050505050565b60008054906101000a900473ffffffffffffffffffffffffffffffffffffffff1681565b604051806040016040528060008152602001606081525090565b6000604051905090565b600080fd5b600080fd5b6000819050919050565b6105ec816105d9565b81146105f757600080fd5b50565b600081359050610609816105e3565b92915050565b600060208284031215610625576106246105cf565b5b6000610633848285016105fa565b91505092915050565b600073ffffffffffffffffffffffffffffffffffffffff82169050919050565b60006106678261063c565b9050919050565b6106778161065c565b82525050565b6000602082019050610692600083018461066e565b92915050565b600080fd5b6000601f19601f8301169050919050565b7f4e487b7100000000000000000000000000000000000000000000000000000000600052604160045260246000fd5b6106e68261069d565b810181811067ffffffffffffffff82111715610705576107046106ae565b5b80604052505050565b60006107186105c5565b905061072482826106dd565b919050565b600067ffffffffffffffff821115610744576107436106ae565b5b602082029050602081019050919050565b600080fd5b600080fd5b600080fd5b600081519050610773816105e3565b92915050565b600080fd5b600067ffffffffffffffff821115610799576107986106ae565b5b6107a28261069d565b9050602081019050919050565b60005b838110156107cd5780820151818401526020810190506107b2565b60008484015250505050565b60006107ec6107e78461077e565b61070e565b90508281526020810184848401111561080857610807610779565b5b6108138482856107af565b509392505050565b600082601f8301126108305761082f610698565b5b81516108408482602086016107d9565b91505092915050565b60006040828403121561085f5761085e61075a565b5b610869604061070e565b9050600061087984828501610764565b600083015250602082015167ffffffffffffffff81111561089d5761089c61075f565b5b6108a98482850161081b565b60208301525092915050565b60006108c86108c384610729565b61070e565b905080838252602082019050602084028301858111156108eb576108ea610755565b5b835b8181101561093257805167ffffffffffffffff8111156109105761090f610698565b5b80860161091d8982610849565b855260208501945050506020810190506108ed565b5050509392505050565b600082601f83011261095157610950610698565b5b81516109618482602086016108b5565b91505092915050565b6000602082840312156109805761097f6105cf565b5b600082015167ffffffffffffffff81111561099e5761099d6105d4565b5b6109aa8482850161093c565b91505092915050565b7f4e487b7100000000000000000000000000000000000000000000000000000000600052603260045260246000fd5b600081519050919050565b600082825260208201905092915050565b6000610a09826109e2565b610a1381856109ed565b9350610a238185602086016107af565b610a2c8161069d565b840191505092915050565b6000604082019050610a4c600083018561066e565b8181036020830152610a5e81846109fe565b90509392505050565b600060208284031215610a7d57610a7c6105cf565b5b6000610a8b84828501610764565b91505092915050565b7f4e487b7100000000000000000000000000000000000000000000000000000000600052601160045260246000fd5b6000610ace826105d9565b9150610ad9836105d9565b9250828202610ae7816105d9565b91508282048414831517610afe57610afd610a94565b5b5092915050565b7f496e73756666696369656e7420734b696920746f6b656e730000000000000000600082015250565b6000610b3b6018836109ed565b9150610b4682610b05565b602082019050919050565b60006020820190508181036000830152610b6a81610b2e565b9050919050565b7f496e73756666696369656e74204b49492073656e740000000000000000000000600082015250565b6000610ba76015836109ed565b9150610bb282610b71565b602082019050919050565b60006020820190508181036000830152610bd681610b9a565b9050919050565b7f4e487b7100000000000000000000000000000000000000000000000000000000600052601260045260246000fd5b6000610c17826105d9565b9150610c22836105d9565b925082610c3257610c31610bdd565b5b828204905092915050565b7f496e73756666696369656e7420734b696920746f6b656e7320696e20636f6e7460008201527f7261637400000000000000000000000000000000000000000000000000000000602082015250565b6000610c996024836109ed565b9150610ca482610c3d565b604082019050919050565b60006020820190508181036000830152610cc881610c8c565b9050919050565b600081519050919050565b600082825260208201905092915050565b6000819050602082019050919050565b610d04816105d9565b82525050565b600082825260208201905092915050565b6000610d26826109e2565b610d308185610d0a565b9350610d408185602086016107af565b610d498161069d565b840191505092915050565b6000604083016000830151610d6c6000860182610cfb565b5060208301518482036020860152610d848282610d1b565b9150508091505092915050565b6000610d9d8383610d54565b905092915050565b6000602082019050919050565b6000610dbd82610ccf565b610dc78185610cda565b935083602082028501610dd985610ceb565b8060005b85811015610e155784840389528151610df68582610d91565b9450610e0183610da5565b925060208a01995050600181019050610ddd565b50829750879550505050505092915050565b6000604082019050610e3c600083018561066e565b8181036020830152610e4e8184610db2565b90509392505050565b60008115159050919050565b610e6c81610e57565b8114610e7757600080fd5b50565b600081519050610e8981610e63565b92915050565b600060208284031215610ea557610ea46105cf565b5b6000610eb384828501610e7a565b91505092915050565b7f4661696c656420746f2062757920734b69690000000000000000000000000000600082015250565b6000610ef26012836109ed565b9150610efd82610ebc565b602082019050919050565b60006020820190508181036000830152610f2181610ee5565b905091905056fea2646970667358221220317ade2b07cadb7ea8056681b0d83b75d475c06f3c84a93a4c7773757a7707aa64736f6c63430008180033",
  "linkReferences": {},
  "deployedLinkReferences": {}
}